{
  "contractName": "SmartVault",
  "abi": [
    {
      "anonymous": false,
      "inputs": [
        {
          "indexed": true,
          "internalType": "address",
          "name": "token",
          "type": "address"
        }
      ],
      "name": "AddedRewardToken",
      "type": "event"
    },
    {
      "anonymous": false,
      "inputs": [
        {
          "indexed": true,
          "internalType": "address",
          "name": "owner",
          "type": "address"
        },
        {
          "indexed": true,
          "internalType": "address",
          "name": "spender",
          "type": "address"
        },
        {
          "indexed": false,
          "internalType": "uint256",
          "name": "value",
          "type": "uint256"
        }
      ],
      "name": "Approval",
      "type": "event"
    },
    {
      "anonymous": false,
      "inputs": [
        {
          "indexed": false,
          "internalType": "address",
          "name": "controller",
          "type": "address"
        },
        {
          "indexed": false,
          "internalType": "uint256",
          "name": "ts",
          "type": "uint256"
        },
        {
          "indexed": false,
          "internalType": "uint256",
          "name": "block",
          "type": "uint256"
        }
      ],
      "name": "ContractInitialized",
      "type": "event"
    },
    {
      "anonymous": false,
      "inputs": [
        {
          "indexed": true,
          "internalType": "address",
          "name": "beneficiary",
          "type": "address"
        },
        {
          "indexed": false,
          "internalType": "uint256",
          "name": "amount",
          "type": "uint256"
        }
      ],
      "name": "Deposit",
      "type": "event"
    },
    {
      "anonymous": false,
      "inputs": [
        {
          "indexed": false,
          "internalType": "uint256",
          "name": "amount",
          "type": "uint256"
        }
      ],
      "name": "Invest",
      "type": "event"
    },
    {
      "anonymous": false,
      "inputs": [
        {
          "indexed": true,
          "internalType": "address",
          "name": "token",
          "type": "address"
        }
      ],
      "name": "RemovedRewardToken",
      "type": "event"
    },
    {
      "anonymous": false,
      "inputs": [
        {
          "indexed": false,
          "internalType": "address",
          "name": "rewardToken",
          "type": "address"
        },
        {
          "indexed": false,
          "internalType": "uint256",
          "name": "reward",
          "type": "uint256"
        }
      ],
      "name": "RewardAdded",
      "type": "event"
    },
    {
      "anonymous": false,
      "inputs": [
        {
          "indexed": true,
          "internalType": "address",
          "name": "user",
          "type": "address"
        },
        {
          "indexed": false,
          "internalType": "address",
          "name": "rewardToken",
          "type": "address"
        },
        {
          "indexed": false,
          "internalType": "uint256",
          "name": "reward",
          "type": "uint256"
        }
      ],
      "name": "RewardDenied",
      "type": "event"
    },
    {
      "anonymous": false,
      "inputs": [
        {
          "indexed": false,
          "internalType": "address",
          "name": "rewardToken",
          "type": "address"
        },
        {
          "indexed": false,
          "internalType": "uint256",
          "name": "amount",
          "type": "uint256"
        }
      ],
      "name": "RewardMovedToController",
      "type": "event"
    },
    {
      "anonymous": false,
      "inputs": [
        {
          "indexed": true,
          "internalType": "address",
          "name": "user",
          "type": "address"
        },
        {
          "indexed": false,
          "internalType": "address",
          "name": "rewardToken",
          "type": "address"
        },
        {
          "indexed": false,
          "internalType": "uint256",
          "name": "reward",
          "type": "uint256"
        }
      ],
      "name": "RewardPaid",
      "type": "event"
    },
    {
      "anonymous": false,
      "inputs": [
        {
          "indexed": true,
          "internalType": "address",
          "name": "token",
          "type": "address"
        },
        {
          "indexed": false,
          "internalType": "uint256",
          "name": "amount",
          "type": "uint256"
        }
      ],
      "name": "RewardRecirculated",
      "type": "event"
    },
    {
      "anonymous": false,
      "inputs": [
        {
          "indexed": true,
          "internalType": "address",
          "name": "token",
          "type": "address"
        },
        {
          "indexed": false,
          "internalType": "uint256",
          "name": "amount",
          "type": "uint256"
        }
      ],
      "name": "RewardSentToController",
      "type": "event"
    },
    {
      "anonymous": false,
      "inputs": [
        {
          "indexed": true,
          "internalType": "address",
          "name": "user",
          "type": "address"
        },
        {
          "indexed": false,
          "internalType": "uint256",
          "name": "amount",
          "type": "uint256"
        }
      ],
      "name": "Staked",
      "type": "event"
    },
    {
      "anonymous": false,
      "inputs": [
        {
          "indexed": false,
          "internalType": "address",
          "name": "newStrategy",
          "type": "address"
        },
        {
          "indexed": false,
          "internalType": "uint256",
          "name": "time",
          "type": "uint256"
        }
      ],
      "name": "StrategyAnnounced",
      "type": "event"
    },
    {
      "anonymous": false,
      "inputs": [
        {
          "indexed": false,
          "internalType": "address",
          "name": "newStrategy",
          "type": "address"
        },
        {
          "indexed": false,
          "internalType": "address",
          "name": "oldStrategy",
          "type": "address"
        }
      ],
      "name": "StrategyChanged",
      "type": "event"
    },
    {
      "anonymous": false,
      "inputs": [
        {
          "indexed": true,
          "internalType": "address",
          "name": "from",
          "type": "address"
        },
        {
          "indexed": true,
          "internalType": "address",
          "name": "to",
          "type": "address"
        },
        {
          "indexed": false,
          "internalType": "uint256",
          "name": "value",
          "type": "uint256"
        }
      ],
      "name": "Transfer",
      "type": "event"
    },
    {
      "anonymous": false,
      "inputs": [
        {
          "indexed": true,
          "internalType": "string",
          "name": "name",
          "type": "string"
        },
        {
          "indexed": false,
          "internalType": "address",
          "name": "oldValue",
          "type": "address"
        },
        {
          "indexed": false,
          "internalType": "address",
          "name": "newValue",
          "type": "address"
        }
      ],
      "name": "UpdatedAddressSlot",
      "type": "event"
    },
    {
      "anonymous": false,
      "inputs": [
        {
          "indexed": true,
          "internalType": "string",
          "name": "name",
          "type": "string"
        },
        {
          "indexed": false,
          "internalType": "bool",
          "name": "oldValue",
          "type": "bool"
        },
        {
          "indexed": false,
          "internalType": "bool",
          "name": "newValue",
          "type": "bool"
        }
      ],
      "name": "UpdatedBoolSlot",
      "type": "event"
    },
    {
      "anonymous": false,
      "inputs": [
        {
          "indexed": true,
          "internalType": "string",
          "name": "name",
          "type": "string"
        },
        {
          "indexed": false,
          "internalType": "uint256",
          "name": "oldValue",
          "type": "uint256"
        },
        {
          "indexed": false,
          "internalType": "uint256",
          "name": "newValue",
          "type": "uint256"
        }
      ],
      "name": "UpdatedUint256Slot",
      "type": "event"
    },
    {
      "anonymous": false,
      "inputs": [
        {
          "indexed": true,
          "internalType": "address",
          "name": "beneficiary",
          "type": "address"
        },
        {
          "indexed": false,
          "internalType": "uint256",
          "name": "amount",
          "type": "uint256"
        }
      ],
      "name": "Withdraw",
      "type": "event"
    },
    {
      "anonymous": false,
      "inputs": [
        {
          "indexed": true,
          "internalType": "address",
          "name": "user",
          "type": "address"
        },
        {
          "indexed": false,
          "internalType": "uint256",
          "name": "amount",
          "type": "uint256"
        }
      ],
      "name": "Withdrawn",
      "type": "event"
    },
    {
      "inputs": [],
      "name": "DEPOSIT_FEE_DENOMINATOR",
      "outputs": [
        {
          "internalType": "uint256",
          "name": "",
          "type": "uint256"
        }
      ],
      "stateMutability": "view",
      "type": "function",
      "constant": true
    },
    {
      "inputs": [],
      "name": "LOCK_PENALTY_DENOMINATOR",
      "outputs": [
        {
          "internalType": "uint256",
          "name": "",
          "type": "uint256"
        }
      ],
      "stateMutability": "view",
      "type": "function",
      "constant": true
    },
    {
      "inputs": [],
      "name": "TO_INVEST_DENOMINATOR",
      "outputs": [
        {
          "internalType": "uint256",
          "name": "",
          "type": "uint256"
        }
      ],
      "stateMutability": "view",
      "type": "function",
      "constant": true
    },
    {
      "inputs": [],
      "name": "VERSION",
      "outputs": [
        {
          "internalType": "string",
          "name": "",
          "type": "string"
        }
      ],
      "stateMutability": "view",
      "type": "function",
      "constant": true
    },
    {
      "inputs": [],
      "name": "active",
      "outputs": [
        {
          "internalType": "bool",
          "name": "",
          "type": "bool"
        }
      ],
      "stateMutability": "view",
      "type": "function",
      "constant": true
    },
    {
      "inputs": [
        {
          "internalType": "address",
          "name": "owner",
          "type": "address"
        },
        {
          "internalType": "address",
          "name": "spender",
          "type": "address"
        }
      ],
      "name": "allowance",
      "outputs": [
        {
          "internalType": "uint256",
          "name": "",
          "type": "uint256"
        }
      ],
      "stateMutability": "view",
      "type": "function",
      "constant": true
    },
    {
      "inputs": [],
      "name": "alwaysInvest",
      "outputs": [
        {
          "internalType": "bool",
          "name": "",
          "type": "bool"
        }
      ],
      "stateMutability": "view",
      "type": "function",
      "constant": true
    },
    {
      "inputs": [
        {
          "internalType": "address",
          "name": "spender",
          "type": "address"
        },
        {
          "internalType": "uint256",
          "name": "amount",
          "type": "uint256"
        }
      ],
      "name": "approve",
      "outputs": [
        {
          "internalType": "bool",
          "name": "",
          "type": "bool"
        }
      ],
      "stateMutability": "nonpayable",
      "type": "function"
    },
    {
      "inputs": [
        {
          "internalType": "address",
          "name": "account",
          "type": "address"
        }
      ],
      "name": "balanceOf",
      "outputs": [
        {
          "internalType": "uint256",
          "name": "",
          "type": "uint256"
        }
      ],
      "stateMutability": "view",
      "type": "function",
      "constant": true
    },
    {
      "inputs": [],
      "name": "controller",
      "outputs": [
        {
          "internalType": "address",
          "name": "",
          "type": "address"
        }
      ],
      "stateMutability": "view",
      "type": "function",
      "constant": true
    },
    {
      "inputs": [],
      "name": "created",
      "outputs": [
        {
          "internalType": "uint256",
          "name": "ts",
          "type": "uint256"
        }
      ],
      "stateMutability": "view",
      "type": "function",
      "constant": true
    },
    {
      "inputs": [],
      "name": "createdBlock",
      "outputs": [
        {
          "internalType": "uint256",
          "name": "ts",
          "type": "uint256"
        }
      ],
      "stateMutability": "view",
      "type": "function",
      "constant": true
    },
    {
      "inputs": [
        {
          "internalType": "address",
          "name": "spender",
          "type": "address"
        },
        {
          "internalType": "uint256",
          "name": "subtractedValue",
          "type": "uint256"
        }
      ],
      "name": "decreaseAllowance",
      "outputs": [
        {
          "internalType": "bool",
          "name": "",
          "type": "bool"
        }
      ],
      "stateMutability": "nonpayable",
      "type": "function"
    },
    {
      "inputs": [],
      "name": "depositFeeNumerator",
      "outputs": [
        {
          "internalType": "uint256",
          "name": "",
          "type": "uint256"
        }
      ],
      "stateMutability": "view",
      "type": "function",
      "constant": true
    },
    {
      "inputs": [],
      "name": "doHardWorkOnInvest",
      "outputs": [
        {
          "internalType": "bool",
          "name": "",
          "type": "bool"
        }
      ],
      "stateMutability": "view",
      "type": "function",
      "constant": true
    },
    {
      "inputs": [],
      "name": "duration",
      "outputs": [
        {
          "internalType": "uint256",
          "name": "",
          "type": "uint256"
        }
      ],
      "stateMutability": "view",
      "type": "function",
      "constant": true
    },
    {
      "inputs": [
        {
          "internalType": "address",
          "name": "spender",
          "type": "address"
        },
        {
          "internalType": "uint256",
          "name": "addedValue",
          "type": "uint256"
        }
      ],
      "name": "increaseAllowance",
      "outputs": [
        {
          "internalType": "bool",
          "name": "",
          "type": "bool"
        }
      ],
      "stateMutability": "nonpayable",
      "type": "function"
    },
    {
      "inputs": [
        {
          "internalType": "address",
          "name": "__controller",
          "type": "address"
        }
      ],
      "name": "initializeControllable",
      "outputs": [],
      "stateMutability": "nonpayable",
      "type": "function"
    },
    {
      "inputs": [
        {
          "internalType": "address",
          "name": "_underlyingToken",
          "type": "address"
        },
        {
          "internalType": "uint256",
          "name": "_durationValue",
          "type": "uint256"
        },
        {
          "internalType": "bool",
          "name": "__lockAllowed",
          "type": "bool"
        }
      ],
      "name": "initializeVaultStorage",
      "outputs": [],
      "stateMutability": "nonpayable",
      "type": "function"
    },
    {
      "inputs": [
        {
          "internalType": "address",
          "name": "_value",
          "type": "address"
        }
      ],
      "name": "isController",
      "outputs": [
        {
          "internalType": "bool",
          "name": "",
          "type": "bool"
        }
      ],
      "stateMutability": "view",
      "type": "function",
      "constant": true
    },
    {
      "inputs": [
        {
          "internalType": "address",
          "name": "_value",
          "type": "address"
        }
      ],
      "name": "isGovernance",
      "outputs": [
        {
          "internalType": "bool",
          "name": "",
          "type": "bool"
        }
      ],
      "stateMutability": "view",
      "type": "function",
      "constant": true
    },
    {
      "inputs": [
        {
          "internalType": "address",
          "name": "",
          "type": "address"
        }
      ],
      "name": "lastUpdateTimeForToken",
      "outputs": [
        {
          "internalType": "uint256",
          "name": "",
          "type": "uint256"
        }
      ],
      "stateMutability": "view",
      "type": "function",
      "constant": true
    },
    {
      "inputs": [],
      "name": "lockAllowed",
      "outputs": [
        {
          "internalType": "bool",
          "name": "",
          "type": "bool"
        }
      ],
      "stateMutability": "view",
      "type": "function",
      "constant": true
    },
    {
      "inputs": [],
      "name": "lockPenalty",
      "outputs": [
        {
          "internalType": "uint256",
          "name": "",
          "type": "uint256"
        }
      ],
      "stateMutability": "view",
      "type": "function",
      "constant": true
    },
    {
      "inputs": [],
      "name": "lockPeriod",
      "outputs": [
        {
          "internalType": "uint256",
          "name": "",
          "type": "uint256"
        }
      ],
      "stateMutability": "view",
      "type": "function",
      "constant": true
    },
    {
      "inputs": [
        {
          "internalType": "address",
          "name": "",
          "type": "address"
        }
      ],
      "name": "periodFinishForToken",
      "outputs": [
        {
          "internalType": "uint256",
          "name": "",
          "type": "uint256"
        }
      ],
      "stateMutability": "view",
      "type": "function",
      "constant": true
    },
    {
      "inputs": [],
      "name": "ppfsDecreaseAllowed",
      "outputs": [
        {
          "internalType": "bool",
          "name": "",
          "type": "bool"
        }
      ],
      "stateMutability": "view",
      "type": "function",
      "constant": true
    },
    {
      "inputs": [],
      "name": "protectionMode",
      "outputs": [
        {
          "internalType": "bool",
          "name": "",
          "type": "bool"
        }
      ],
      "stateMutability": "view",
      "type": "function",
      "constant": true
    },
    {
      "inputs": [
        {
          "internalType": "address",
          "name": "",
          "type": "address"
        }
      ],
      "name": "rewardPerTokenStoredForToken",
      "outputs": [
        {
          "internalType": "uint256",
          "name": "",
          "type": "uint256"
        }
      ],
      "stateMutability": "view",
      "type": "function",
      "constant": true
    },
    {
      "inputs": [
        {
          "internalType": "address",
          "name": "",
          "type": "address"
        }
      ],
      "name": "rewardRateForToken",
      "outputs": [
        {
          "internalType": "uint256",
          "name": "",
          "type": "uint256"
        }
      ],
      "stateMutability": "view",
      "type": "function",
      "constant": true
    },
    {
      "inputs": [
        {
          "internalType": "address",
          "name": "",
          "type": "address"
        },
        {
          "internalType": "address",
          "name": "",
          "type": "address"
        }
      ],
      "name": "rewardsForToken",
      "outputs": [
        {
          "internalType": "uint256",
          "name": "",
          "type": "uint256"
        }
      ],
      "stateMutability": "view",
      "type": "function",
      "constant": true
    },
    {
      "inputs": [],
      "name": "strategy",
      "outputs": [
        {
          "internalType": "address",
          "name": "",
          "type": "address"
        }
      ],
      "stateMutability": "view",
      "type": "function",
      "constant": true
    },
    {
      "inputs": [],
      "name": "toInvest",
      "outputs": [
        {
          "internalType": "uint256",
          "name": "",
          "type": "uint256"
        }
      ],
      "stateMutability": "view",
      "type": "function",
      "constant": true
    },
    {
      "inputs": [],
      "name": "totalSupply",
      "outputs": [
        {
          "internalType": "uint256",
          "name": "",
          "type": "uint256"
        }
      ],
      "stateMutability": "view",
      "type": "function",
      "constant": true
    },
    {
      "inputs": [
        {
          "internalType": "address",
          "name": "recipient",
          "type": "address"
        },
        {
          "internalType": "uint256",
          "name": "amount",
          "type": "uint256"
        }
      ],
      "name": "transfer",
      "outputs": [
        {
          "internalType": "bool",
          "name": "",
          "type": "bool"
        }
      ],
      "stateMutability": "nonpayable",
      "type": "function"
    },
    {
      "inputs": [
        {
          "internalType": "address",
          "name": "sender",
          "type": "address"
        },
        {
          "internalType": "address",
          "name": "recipient",
          "type": "address"
        },
        {
          "internalType": "uint256",
          "name": "amount",
          "type": "uint256"
        }
      ],
      "name": "transferFrom",
      "outputs": [
        {
          "internalType": "bool",
          "name": "",
          "type": "bool"
        }
      ],
      "stateMutability": "nonpayable",
      "type": "function"
    },
    {
      "inputs": [],
      "name": "underlying",
      "outputs": [
        {
          "internalType": "address",
          "name": "",
          "type": "address"
        }
      ],
      "stateMutability": "view",
      "type": "function",
      "constant": true
    },
    {
      "inputs": [
        {
          "internalType": "address",
          "name": "",
          "type": "address"
        }
      ],
      "name": "userBoostTs",
      "outputs": [
        {
          "internalType": "uint256",
          "name": "",
          "type": "uint256"
        }
      ],
      "stateMutability": "view",
      "type": "function",
      "constant": true
    },
    {
      "inputs": [
        {
          "internalType": "address",
          "name": "",
          "type": "address"
        }
      ],
      "name": "userLastDepositTs",
      "outputs": [
        {
          "internalType": "uint256",
          "name": "",
          "type": "uint256"
        }
      ],
      "stateMutability": "view",
      "type": "function",
      "constant": true
    },
    {
      "inputs": [
        {
          "internalType": "address",
          "name": "",
          "type": "address"
        }
      ],
      "name": "userLastWithdrawTs",
      "outputs": [
        {
          "internalType": "uint256",
          "name": "",
          "type": "uint256"
        }
      ],
      "stateMutability": "view",
      "type": "function",
      "constant": true
    },
    {
      "inputs": [
        {
          "internalType": "address",
          "name": "",
          "type": "address"
        }
      ],
      "name": "userLockTs",
      "outputs": [
        {
          "internalType": "uint256",
          "name": "",
          "type": "uint256"
        }
      ],
      "stateMutability": "view",
      "type": "function",
      "constant": true
    },
    {
      "inputs": [
        {
          "internalType": "address",
          "name": "",
          "type": "address"
        },
        {
          "internalType": "address",
          "name": "",
          "type": "address"
        }
      ],
      "name": "userRewardPerTokenPaidForToken",
      "outputs": [
        {
          "internalType": "uint256",
          "name": "",
          "type": "uint256"
        }
      ],
      "stateMutability": "view",
      "type": "function",
      "constant": true
    },
    {
      "inputs": [
        {
          "internalType": "string",
          "name": "_name",
          "type": "string"
        },
        {
          "internalType": "string",
          "name": "_symbol",
          "type": "string"
        },
        {
          "internalType": "address",
          "name": "_controller",
          "type": "address"
        },
        {
          "internalType": "address",
          "name": "__underlying",
          "type": "address"
        },
        {
          "internalType": "uint256",
          "name": "_duration",
          "type": "uint256"
        },
        {
          "internalType": "bool",
          "name": "_lockAllowed",
          "type": "bool"
        },
        {
          "internalType": "address",
          "name": "_rewardToken",
          "type": "address"
        },
        {
          "internalType": "uint256",
          "name": "_depositFee",
          "type": "uint256"
        }
      ],
      "name": "initializeSmartVault",
      "outputs": [],
      "stateMutability": "nonpayable",
      "type": "function"
    },
    {
      "inputs": [],
      "name": "name",
      "outputs": [
        {
          "internalType": "string",
          "name": "",
          "type": "string"
        }
      ],
      "stateMutability": "view",
      "type": "function",
      "constant": true
    },
    {
      "inputs": [],
      "name": "symbol",
      "outputs": [
        {
          "internalType": "string",
          "name": "",
          "type": "string"
        }
      ],
      "stateMutability": "view",
      "type": "function",
      "constant": true
    },
    {
      "inputs": [],
      "name": "decimals",
      "outputs": [
        {
          "internalType": "uint8",
          "name": "",
          "type": "uint8"
        }
      ],
      "stateMutability": "view",
      "type": "function",
      "constant": true
    },
    {
      "inputs": [
        {
          "internalType": "string",
          "name": "value",
          "type": "string"
        }
      ],
      "name": "overrideName",
      "outputs": [],
      "stateMutability": "nonpayable",
      "type": "function"
    },
    {
      "inputs": [
        {
          "internalType": "string",
          "name": "value",
          "type": "string"
        }
      ],
      "name": "overrideSymbol",
      "outputs": [],
      "stateMutability": "nonpayable",
      "type": "function"
    },
    {
      "inputs": [
        {
          "internalType": "bool",
          "name": "_value",
          "type": "bool"
        }
      ],
      "name": "changePpfsDecreaseAllowed",
      "outputs": [],
      "stateMutability": "nonpayable",
      "type": "function"
    },
    {
      "inputs": [
        {
          "internalType": "uint256",
          "name": "_value",
          "type": "uint256"
        }
      ],
      "name": "setLockPeriod",
      "outputs": [],
      "stateMutability": "nonpayable",
      "type": "function"
    },
    {
      "inputs": [
        {
          "internalType": "uint256",
          "name": "_value",
          "type": "uint256"
        }
      ],
      "name": "setLockPenalty",
      "outputs": [],
      "stateMutability": "nonpayable",
      "type": "function"
    },
    {
      "inputs": [
        {
          "internalType": "uint256",
          "name": "_value",
          "type": "uint256"
        }
      ],
      "name": "setToInvest",
      "outputs": [],
      "stateMutability": "nonpayable",
      "type": "function"
    },
    {
      "inputs": [],
      "name": "disableLock",
      "outputs": [],
      "stateMutability": "nonpayable",
      "type": "function"
    },
    {
      "inputs": [
        {
          "internalType": "bool",
          "name": "_active",
          "type": "bool"
        }
      ],
      "name": "changeActivityStatus",
      "outputs": [],
      "stateMutability": "nonpayable",
      "type": "function"
    },
    {
      "inputs": [
        {
          "internalType": "bool",
          "name": "_active",
          "type": "bool"
        }
      ],
      "name": "changeProtectionMode",
      "outputs": [],
      "stateMutability": "nonpayable",
      "type": "function"
    },
    {
      "inputs": [
        {
          "internalType": "bool",
          "name": "_active",
          "type": "bool"
        }
      ],
      "name": "changeDoHardWorkOnInvest",
      "outputs": [],
      "stateMutability": "nonpayable",
      "type": "function"
    },
    {
      "inputs": [
        {
          "internalType": "bool",
          "name": "_active",
          "type": "bool"
        }
      ],
      "name": "changeAlwaysInvest",
      "outputs": [],
      "stateMutability": "nonpayable",
      "type": "function"
    },
    {
      "inputs": [],
      "name": "doHardWork",
      "outputs": [],
      "stateMutability": "nonpayable",
      "type": "function"
    },
    {
      "inputs": [
        {
          "internalType": "address",
          "name": "rt",
          "type": "address"
        }
      ],
      "name": "addRewardToken",
      "outputs": [],
      "stateMutability": "nonpayable",
      "type": "function"
    },
    {
      "inputs": [
        {
          "internalType": "address",
          "name": "rt",
          "type": "address"
        }
      ],
      "name": "removeRewardToken",
      "outputs": [],
      "stateMutability": "nonpayable",
      "type": "function"
    },
    {
      "inputs": [],
      "name": "rebalance",
      "outputs": [],
      "stateMutability": "nonpayable",
      "type": "function"
    },
    {
      "inputs": [],
      "name": "withdrawAllToVault",
      "outputs": [],
      "stateMutability": "nonpayable",
      "type": "function"
    },
    {
      "inputs": [
        {
          "internalType": "uint256",
          "name": "amount",
          "type": "uint256"
        }
      ],
      "name": "deposit",
      "outputs": [],
      "stateMutability": "nonpayable",
      "type": "function"
    },
    {
      "inputs": [
        {
          "internalType": "uint256",
          "name": "amount",
          "type": "uint256"
        }
      ],
      "name": "depositAndInvest",
      "outputs": [],
      "stateMutability": "nonpayable",
      "type": "function"
    },
    {
      "inputs": [
        {
          "internalType": "uint256",
          "name": "amount",
          "type": "uint256"
        },
        {
          "internalType": "address",
          "name": "holder",
          "type": "address"
        }
      ],
      "name": "depositFor",
      "outputs": [],
      "stateMutability": "nonpayable",
      "type": "function"
    },
    {
      "inputs": [
        {
          "internalType": "uint256",
          "name": "numberOfShares",
          "type": "uint256"
        }
      ],
      "name": "withdraw",
      "outputs": [],
      "stateMutability": "nonpayable",
      "type": "function"
    },
    {
      "inputs": [],
      "name": "exit",
      "outputs": [],
      "stateMutability": "nonpayable",
      "type": "function"
    },
    {
      "inputs": [],
      "name": "getAllRewards",
      "outputs": [],
      "stateMutability": "nonpayable",
      "type": "function"
    },
    {
      "inputs": [
        {
          "internalType": "address",
          "name": "rt",
          "type": "address"
        }
      ],
      "name": "getReward",
      "outputs": [],
      "stateMutability": "nonpayable",
      "type": "function"
    },
    {
      "inputs": [],
      "name": "underlyingUnit",
      "outputs": [
        {
          "internalType": "uint256",
          "name": "",
          "type": "uint256"
        }
      ],
      "stateMutability": "view",
      "type": "function",
      "constant": true
    },
    {
      "inputs": [],
      "name": "underlyingBalanceInVault",
      "outputs": [
        {
          "internalType": "uint256",
          "name": "",
          "type": "uint256"
        }
      ],
      "stateMutability": "view",
      "type": "function",
      "constant": true
    },
    {
      "inputs": [],
      "name": "underlyingBalanceWithInvestment",
      "outputs": [
        {
          "internalType": "uint256",
          "name": "",
          "type": "uint256"
        }
      ],
      "stateMutability": "view",
      "type": "function",
      "constant": true
    },
    {
      "inputs": [
        {
          "internalType": "address",
          "name": "holder",
          "type": "address"
        }
      ],
      "name": "underlyingBalanceWithInvestmentForHolder",
      "outputs": [
        {
          "internalType": "uint256",
          "name": "",
          "type": "uint256"
        }
      ],
      "stateMutability": "view",
      "type": "function",
      "constant": true
    },
    {
      "inputs": [],
      "name": "getPricePerFullShare",
      "outputs": [
        {
          "internalType": "uint256",
          "name": "",
          "type": "uint256"
        }
      ],
      "stateMutability": "view",
      "type": "function",
      "constant": true
    },
    {
      "inputs": [],
      "name": "availableToInvestOut",
      "outputs": [
        {
          "internalType": "uint256",
          "name": "",
          "type": "uint256"
        }
      ],
      "stateMutability": "view",
      "type": "function",
      "constant": true
    },
    {
      "inputs": [
        {
          "internalType": "address",
          "name": "rt",
          "type": "address"
        },
        {
          "internalType": "address",
          "name": "account",
          "type": "address"
        }
      ],
      "name": "earned",
      "outputs": [
        {
          "internalType": "uint256",
          "name": "",
          "type": "uint256"
        }
      ],
      "stateMutability": "view",
      "type": "function",
      "constant": true
    },
    {
      "inputs": [
        {
          "internalType": "address",
          "name": "rt",
          "type": "address"
        },
        {
          "internalType": "address",
          "name": "account",
          "type": "address"
        }
      ],
      "name": "earnedWithBoost",
      "outputs": [
        {
          "internalType": "uint256",
          "name": "",
          "type": "uint256"
        }
      ],
      "stateMutability": "view",
      "type": "function",
      "constant": true
    },
    {
      "inputs": [
        {
          "internalType": "address",
          "name": "rt",
          "type": "address"
        }
      ],
      "name": "rewardPerToken",
      "outputs": [
        {
          "internalType": "uint256",
          "name": "",
          "type": "uint256"
        }
      ],
      "stateMutability": "view",
      "type": "function",
      "constant": true
    },
    {
      "inputs": [
        {
          "internalType": "address",
          "name": "rt",
          "type": "address"
        }
      ],
      "name": "lastTimeRewardApplicable",
      "outputs": [
        {
          "internalType": "uint256",
          "name": "",
          "type": "uint256"
        }
      ],
      "stateMutability": "view",
      "type": "function",
      "constant": true
    },
    {
      "inputs": [],
      "name": "rewardTokens",
      "outputs": [
        {
          "internalType": "address[]",
          "name": "",
          "type": "address[]"
        }
      ],
      "stateMutability": "view",
      "type": "function",
      "constant": true
    },
    {
      "inputs": [],
      "name": "rewardTokensLength",
      "outputs": [
        {
          "internalType": "uint256",
          "name": "",
          "type": "uint256"
        }
      ],
      "stateMutability": "view",
      "type": "function",
      "constant": true
    },
    {
      "inputs": [
        {
          "internalType": "address",
          "name": "rt",
          "type": "address"
        }
      ],
      "name": "getRewardTokenIndex",
      "outputs": [
        {
          "internalType": "uint256",
          "name": "",
          "type": "uint256"
        }
      ],
      "stateMutability": "view",
      "type": "function",
      "constant": true
    },
    {
      "inputs": [
        {
          "internalType": "address",
          "name": "_rewardToken",
          "type": "address"
        },
        {
          "internalType": "uint256",
          "name": "amount",
          "type": "uint256"
        }
      ],
      "name": "notifyTargetRewardAmount",
      "outputs": [],
      "stateMutability": "nonpayable",
      "type": "function"
    },
    {
      "inputs": [
        {
          "internalType": "address",
          "name": "_rewardToken",
          "type": "address"
        },
        {
          "internalType": "uint256",
          "name": "_amount",
          "type": "uint256"
        }
      ],
      "name": "notifyRewardWithoutPeriodChange",
      "outputs": [],
      "stateMutability": "nonpayable",
      "type": "function"
    },
    {
      "inputs": [],
      "name": "stop",
      "outputs": [],
      "stateMutability": "nonpayable",
      "type": "function"
    },
    {
      "inputs": [
        {
          "internalType": "address",
          "name": "newStrategy",
          "type": "address"
        }
      ],
      "name": "setStrategy",
      "outputs": [],
      "stateMutability": "nonpayable",
      "type": "function"
    },
    {
      "inputs": [],
      "name": "sync",
      "outputs": [],
      "stateMutability": "pure",
      "type": "function",
      "constant": true
    }
  ],
  "bytecode": "0x608060405234801561001057600080fd5b50615a7380620000216000396000f3fe608060405234801561001057600080fd5b50600436106104cd5760003560e01c8063700a907011610283578063bf199e621161015c578063dee1f0e4116100ce578063ec29d3ba11610092578063ec29d3ba14610a3d578063f122977714610a5d578063f77c479114610a70578063fce42aee14610a78578063ffa1ad7414610a98578063fff6cae91461052d57600080fd5b8063dee1f0e4146109e9578063e81bb2d6146109fc578063e8548aff14610a0f578063e945cdcd14610a22578063e9fad8ee14610a3557600080fd5b8063c2baf35611610120578063c2baf3561461092c578063c393bd2f14610934578063c80284ad1461095f578063cb88984c14610972578063cf039f4914610985578063dd62ed3e146109b057600080fd5b8063bf199e62146108ec578063bfd131f1146108f4578063c00007b0146108fc578063c1c98d031461090f578063c2b18aa01461091757600080fd5b80639600e1ed116101f5578063a9059cbb116101b9578063a9059cbb14610890578063b39bf441146108a3578063b429afeb146108ab578063b592c390146108be578063b5cb9a45146108c6578063b6b55f25146108d957600080fd5b80639600e1ed1461083a578063a1463f9c1461085a578063a21404fd14610862578063a457c2d714610875578063a8c62e761461088857600080fd5b80637d7c2a1c116102475780637d7c2a1c146107de578063808ea085146107e6578063831c596b146107f9578063860cc9d11461080c5780638cb1d67f1461081f57806395d89b411461083257600080fd5b8063700a90701461075d5780637092a0631461079d57806370a08231146107b0578063779972da146107c357806377c7b8fc146107d657600080fd5b806333a100ca116103b55780634a60abea1161032757806355e099bd116102eb57806355e099bd1461075d57806357b5356e146107655780635c3d4c4614610542578063632381b21461076d578063638634ee146107755780636f307dc31461078857600080fd5b80634a60abea146106fa5780634b87bc341461071a5780634fa5d8541461073a57806351fd706c1461074257806353ceb01c1461075557600080fd5b80633d509c97116103795780633d509c97146106a75780633fd8b02f146106ba5780633fee85e6146106c2578063418fbdc1146106e25780634593144c146106ea57806345b35f56146106f257600080fd5b806333a100ca146106485780633689b6ee1461065b57806336efd16f1461066e57806339448cee14610681578063395093511461069457600080fd5b806318160ddd1161044e578063211dc32d11610412578063211dc32d146105cd57806323b872dd146105e05780632e1a7d4d146105f3578063313ce5671461060657806331e338e614610620578063325a19f11461064057600080fd5b806318160ddd1461058e5780631abf452e146105965780631bf8e7be1461059f5780631c03e6cc146105a75780631edc4478146105ba57600080fd5b80630bd120fe116104955780630bd120fe146105425780630fb5a6b41461054b57806313e8ed8c146105535780631448327d1461056657806316e23e0e1461056e57600080fd5b806302fb0c5e146104d257806303c698d2146104ef57806306fdde031461051057806307da68f514610525578063095ea7b31461052f575b600080fd5b6104da610ac0565b60405190151581526020015b60405180910390f35b6105026104fd3660046152c0565b610acf565b6040519081526020016104e6565b610518610ae0565b6040516104e69190615309565b61052d610bb7565b005b6104da61053d36600461533c565b610d52565b6105026103e881565b610502610d68565b61052d610561366004615368565b610d93565b6104da610dde565b61050261057c3660046152c0565b609c6020526000908152604090205481565b603554610502565b61050261271081565b610502610de8565b61052d6105b53660046152c0565b610df2565b61052d6105c836600461533c565b610eae565b6105026105db3660046153da565b610f93565b6104da6105ee366004615413565b610fa6565b61052d610601366004615454565b611050565b61060e6110f4565b60405160ff90911681526020016104e6565b61050261062e3660046152c0565b60a36020526000908152604090205481565b61050261115f565b61052d6106563660046152c0565b611194565b61052d61066936600461551e565b61128c565b61052d61067c3660046155e2565b6113d1565b61052d61068f366004615607565b611402565b6104da6106a236600461533c565b611414565b61052d6106b53660046152c0565b611450565b6105026115b7565b6105026106d03660046152c0565b609b6020526000908152604090205481565b6105026115e4565b61050261161a565b61052d611648565b6105026107083660046152c0565b60a46020526000908152604090205481565b6105026107283660046152c0565b60a26020526000908152604090205481565b61052d61165b565b61052d610750366004615624565b6116d4565b61050261178c565b6104da611796565b6104da6117a0565b6104da6117d6565b6105026107833660046152c0565b6117e0565b6107906117eb565b6040516104e69190615666565b61052d6107ab36600461533c565b6117f5565b6105026107be3660046152c0565b611c7b565b61052d6107d1366004615454565b611c96565b610502611d1f565b61052d611d29565b61052d6107f4366004615607565b611d94565b61052d610807366004615454565b611deb565b61052d61081a366004615454565b611e8d565b61050261082d3660046152c0565b611eae565b610518611eb9565b6105026108483660046152c0565b609d6020526000908152604090205481565b610502611f8c565b61052d610870366004615368565b611f96565b6104da61088336600461533c565b611fdd565b610790612076565b6104da61089e36600461533c565b612080565b61050261208d565b6104da6108b93660046152c0565b6120bb565b6105026120c6565b61052d6108d4366004615607565b6120d0565b61052d6108e7366004615454565b612127565b609a54610502565b61052d612158565b61052d61090a3660046152c0565b612281565b61052d61229d565b61091f6122e3565b6040516104e6919061567a565b610502612345565b6105026109423660046153da565b609f60209081526000928352604080842090915290825290205481565b61052d61096d366004615607565b61234f565b61052d610980366004615454565b6123a6565b6105026109933660046153da565b60a060209081526000928352604080842090915290825290205481565b6105026109be3660046153da565b6001600160a01b03918216600090815260346020908152604080832093909416825291909152205490565b6104da6109f73660046152c0565b6123ca565b610502610a0a3660046153da565b6123d5565b61052d610a1d366004615607565b6124a1565b61052d610a303660046152c0565b6124b3565b61052d612581565b610502610a4b3660046152c0565b60a16020526000908152604090205481565b610502610a6b3660046152c0565b6125a3565b6107906125ae565b610502610a863660046152c0565b609e6020526000908152604090205481565b61051860405180604001604052806009815260200168312e31302e325f723160b81b81525081565b6000610aca6125b8565b905090565b6000610ada826125e1565b92915050565b600080805260a56020527f5a58a35f79c96918ba4a26566c02f84b94e945aad283848d088844a1238e942d80546060929190610b1b906156c7565b80601f0160208091040260200160405190810160405280929190818152602001828054610b47906156c7565b8015610b945780601f10610b6957610100808354040283529160200191610b94565b820191906000526020600020905b815481529060010190602001808311610b7757829003601f168201915b505050505090508051600014610ba957919050565b610bb1612648565b91505090565b610bc0336126d1565b610bc8612792565b6001600160a01b031663bfd131f16040518163ffffffff1660e01b8152600401600060405180830381600087803b158015610c0257600080fd5b505af1158015610c16573d6000803e3d6000fd5b50505050610c2460006127bd565b60005b609a54811015610d4f576000609a8281548110610c4657610c46615701565b60009182526020808320909101546001600160a01b0316808352609b82526040808420429055609c90925281832083905590516370a0823160e01b815290925082906370a0823190610c9c903090600401615666565b602060405180830381865afa158015610cb9573d6000803e3d6000fd5b505050506040513d601f19601f82011682018060405250810190610cdd9190615717565b90508015610d0157610d01610cf0612830565b6001600160a01b038416908361285e565b7fa9227b50ecb9f42fc4850a7f3d64c49c966d7564a123ba818799e6fe8fe5b2ad8282604051610d32929190615730565b60405180910390a150508080610d479061575f565b915050610c27565b50565b6000610d5f3384846128b4565b50600192915050565b6000610aca60405180604001604052806008815260200167323ab930ba34b7b760c11b8152506129d8565b610d9c33612a1b565b610da557600080fd5b6000805260a5602052610dd97f5a58a35f79c96918ba4a26566c02f84b94e945aad283848d088844a1238e942d838361519e565b505050565b6000610aca612aa0565b6000610aca612ad1565b610dfb336126d1565b600019610e07826125e1565b14610e1157600080fd5b610e19612b57565b6001600160a01b0316816001600160a01b031603610e3657600080fd5b609a805460018101825560009182527f44da158ba27f9252712a74ff6a55c5d531f69609f1f6e7f17c4443a8e2089be40180546001600160a01b0319166001600160a01b03841690811790915560405190917f2b2d582e54aac71907666eaff5d9a22cc45356de8a30b193ff31606a90be67d391a250565b610eb6612830565b6001600160a01b03166316ed8525336040518263ffffffff1660e01b8152600401610ee19190615666565b602060405180830381865afa158015610efe573d6000803e3d6000fd5b505050506040513d601f19601f82011682018060405250810190610f229190615778565b6040518060400160405280600d81526020016c29ab1d102337b93134b23232b760991b81525090610f6f5760405162461bcd60e51b8152600401610f669190615309565b60405180910390fd5b50610f856001600160a01b038316333084612b84565b610f8f8183612ba5565b5050565b6000610f9f8383612d9a565b9392505050565b6000610fb3848484612e1b565b6001600160a01b0384166000908152603460209081526040808320338452909152902054828110156110385760405162461bcd60e51b815260206004820152602860248201527f45524332303a207472616e7366657220616d6f756e74206578636565647320616044820152676c6c6f77616e636560c01b6064820152608401610f66565b61104585338584036128b4565b506001949350505050565b61105933612ff4565b611061612aa0565b80156110de5750611070612830565b6001600160a01b0316639fe34d9f336040518263ffffffff1660e01b815260040161109b9190615666565b602060405180830381865afa1580156110b8573d6000803e3d6000fd5b505050506040513d601f19601f820116820180604052508101906110dc9190615778565b155b156110eb576110eb6130ac565b610d4f81613104565b60006110fe612b57565b6001600160a01b031663313ce5676040518163ffffffff1660e01b8152600401602060405180830381865afa15801561113b573d6000803e3d6000fd5b505050506040513d601f19601f82011682018060405250810190610aca9190615795565b60008061118d60017f6f55f470bdc9cb5f04223fd822021061668e4dccb43e8727b295106dc9769c8b6157b8565b5492915050565b73__VaultLibrary__________________________63a51718536111b6612830565b6111be612b57565b846111c7612792565b60405160e086901b6001600160e01b03191681526001600160a01b03948516600482015292841660248401529083166044830152909116606482015260840160006040518083038186803b15801561121e57600080fd5b505af4158015611232573d6000803e3d6000fd5b505050507f254c88e7a2ea123aeeb89b7cc413fb949188fefcdb7584c4f3d493294daf65c581611260612792565b604080516001600160a01b0393841681529290911660208301520160405180910390a1610d4f81613422565b600054610100900460ff16806112a5575060005460ff16155b6112c15760405162461bcd60e51b8152600401610f66906157cf565b600054610100900460ff161580156112e3576000805461ffff19166101011790555b6112ed89896134b3565b6112f6876124b3565b6113018686866116d4565b6001600160a01b0383161561138157611318612b57565b6001600160a01b0316836001600160a01b03160361133557600080fd5b609a80546001810182556000919091527f44da158ba27f9252712a74ff6a55c5d531f69609f1f6e7f17c4443a8e2089be40180546001600160a01b0319166001600160a01b0385161790555b61138c6103e8613532565b81156113b45761139f606461271061581d565b8211156113ab57600080fd5b6113b4826135a6565b80156113c6576000805461ff00191690555b505050505050505050565b6113d9613630565b6113e233612ff4565b6113ed823383613675565b6113f561391a565b15610f8f57610f8f613949565b61140b336126d1565b610d4f816127bd565b3360008181526034602090815260408083206001600160a01b03871684529091528120549091610d5f91859061144b90869061583f565b6128b4565b611459336126d1565b6000611464826125e1565b9050600019810361147457600080fd5b42609b6000609a848154811061148c5761148c615701565b60009182526020808320909101546001600160a01b03168352820192909252604001902054106114bb57600080fd5b609a546001106114ca57600080fd5b609a546000906114dc906001906157b8565b9050609a81815481106114f1576114f1615701565b600091825260209091200154609a80546001600160a01b03909216918490811061151d5761151d615701565b9060005260206000200160006101000a8154816001600160a01b0302191690836001600160a01b03160217905550609a80548061155c5761155c615857565b600082815260208120820160001990810180546001600160a01b03191690559091019091556040516001600160a01b038516917fb5494e609b7d7189b9fd268eb38adea381bfc53fb5eeeab9dd8ecc3f8af9539e91a2505050565b6000610aca6040518060400160405280600a8152602001691b1bd8dad4195c9a5bd960b21b8152506129d8565b6000610aca604051806040016040528060138152602001723232b837b9b4ba2332b2a73ab6b2b930ba37b960691b8152506129d8565b60008061118d60017f812a673dfca07956350df10f8a654925f561d7a0da09bdbe79e653939a14d9f16157b8565b61165133612ff4565b6116596130ac565b565b61166433613a5c565b80611673575061167333612a1b565b6040518060400160405280600d81526020016c29ab1d102337b93134b23232b760991b815250906116b75760405162461bcd60e51b8152600401610f669190615309565b506116c0613949565b6116c8613a81565b61165957611659613aaa565b600054610100900460ff16806116ed575060005460ff16155b6117095760405162461bcd60e51b8152600401610f66906157cf565b600054610100900460ff1615801561172b576000805461ffff19166101011790555b61173484613b6b565b61173d83613c00565b61174760016127bd565b6117746040518060400160405280600b81526020016a1b1bd8dad05b1b1bddd95960aa1b81525083613c74565b8015611786576000805461ff00191690555b50505050565b6000610aca613cc2565b6000610aca613a81565b6000610aca604051806040016040528060138152602001721c1c199cd11958dc99585cd9505b1b1bddd959606a1b815250613d3b565b6000610aca613d81565b6000610ada82613daf565b6000610aca612b57565b6117fd612830565b6001600160a01b03166316ed8525336040518263ffffffff1660e01b81526004016118289190615666565b602060405180830381865afa158015611845573d6000803e3d6000fd5b505050506040513d601f19601f820116820180604052508101906118699190615778565b6040518060400160405280600d81526020016c29ab1d102337b93134b23232b760991b815250906118ad5760405162461bcd60e51b8152600401610f669190615309565b506118b86000613dd3565b6118c0612830565b6001600160a01b03166347b03bba6040518163ffffffff1660e01b8152600401602060405180830381865afa1580156118fd573d6000803e3d6000fd5b505050506040513d601f19601f82011682018060405250810190611921919061586d565b6001600160a01b031663cd1b9b873084846040518463ffffffff1660e01b81526004016119509392919061588a565b600060405180830381600087803b15801561196a57600080fd5b505af115801561197e573d6000803e3d6000fd5b50505050670de0b6b3a7640000600019611998919061581d565b81106119dc5760405162461bcd60e51b815260206004820152601360248201527253563a20416d6f756e74206f766572666c6f7760681b6044820152606401610f66565b60006119e7836125e1565b90506000198103611a2d5760405162461bcd60e51b815260206004820152601060248201526f14d58e881495081b9bdd08199bdd5b9960821b6044820152606401610f66565b611a426001600160a01b038416333085612b84565b6001600160a01b0383166000908152609b60205260409020544210611a9157611a69610d68565b611a73908361581d565b6001600160a01b0384166000908152609c6020526040902055611b16565b6001600160a01b0383166000908152609b6020526040812054611ab59042906157b8565b6001600160a01b0385166000908152609c602052604081205491925090611adc90836158ae565b9050611ae6610d68565b611af0828661583f565b611afa919061581d565b6001600160a01b0386166000908152609c602052604090205550505b6001600160a01b0383166000908152609d60205260409020429055611b39610d68565b611b43904261583f565b6001600160a01b0384166000818152609b60205260408082209390935591516370a0823160e01b81526370a0823190611b80903090600401615666565b602060405180830381865afa158015611b9d573d6000803e3d6000fd5b505050506040513d601f19601f82011682018060405250810190611bc19190615717565b9050611bcb610d68565b611bd5908261581d565b6001600160a01b0385166000908152609c60205260409020541115611c3c5760405162461bcd60e51b815260206004820152601c60248201527f53563a2050726f76696465642072657761726420746f6f2068696768000000006044820152606401610f66565b7fac24935fd910bc682b5ccb1a07b718cadf8cf2f6d1404c4f3ddc3662dae40e298484604051611c6d929190615730565b60405180910390a150505050565b6001600160a01b031660009081526033602052604090205490565b611c9f33613a5c565b80611cae5750611cae33612a1b565b6040518060400160405280600d81526020016c29ab1d102337b93134b23232b760991b81525090611cf25760405162461bcd60e51b8152600401610f669190615309565b50611cfb613d81565b611d0457600080fd5b611d0c6115b7565b15611d1657600080fd5b610d4f81613e23565b6000610aca613e9b565b611d32336126d1565b611d3a612792565b6001600160a01b031663bfd131f16040518163ffffffff1660e01b8152600401600060405180830381600087803b158015611d7457600080fd5b505af1158015611d88573d6000803e3d6000fd5b50505050611659613949565b611d9d33612a1b565b6040518060400160405280600d81526020016c29ab1d102337b93134b23232b760991b81525090611de15760405162461bcd60e51b8152600401610f669190615309565b50610d4f81613eda565b611df433613a5c565b80611e035750611e0333612a1b565b6040518060400160405280600d81526020016c29ab1d102337b93134b23232b760991b81525090611e475760405162461bcd60e51b8152600401610f669190615309565b50611e5560026103e861581d565b811115611e6157600080fd5b611e69613d81565b611e7257600080fd5b611e7a61208d565b15611e8457600080fd5b610d4f81613f4d565b611e96336126d1565b6103e8811115611ea557600080fd5b610d4f81613532565b6000610ada82613fc7565b6001600090815260a56020527f3cdd87bd16aed04484229287c5bc39384778a2cba3efb90ce9f23f83f81cfedb80546060929190611ef6906156c7565b80601f0160208091040260200160405190810160405280929190818152602001828054611f22906156c7565b8015611f6f5780601f10611f4457610100808354040283529160200191611f6f565b820191906000526020600020905b815481529060010190602001808311611f5257829003601f168201915b505050505090508051600014611f8457919050565b610bb1614009565b6000610aca614018565b611f9f33612a1b565b611fa857600080fd5b600160005260a5602052610dd97f3cdd87bd16aed04484229287c5bc39384778a2cba3efb90ce9f23f83f81cfedb838361519e565b3360009081526034602090815260408083206001600160a01b03861684529091528120548281101561205f5760405162461bcd60e51b815260206004820152602560248201527f45524332303a2064656372656173656420616c6c6f77616e63652062656c6f77604482015264207a65726f60d81b6064820152608401610f66565b61206c33858584036128b4565b5060019392505050565b6000610aca612792565b6000610d5f338484612e1b565b6000610aca6040518060400160405280600b81526020016a6c6f636b50656e616c747960a81b8152506129d8565b6000610ada82613a5c565b6000610aca614043565b6120d933612a1b565b6040518060400160405280600d81526020016c29ab1d102337b93134b23232b760991b8152509061211d5760405162461bcd60e51b8152600401610f669190615309565b50610d4f816140ec565b61212f613630565b61213833612ff4565b612143813333613675565b61214b61391a565b15610d4f57610d4f613949565b33612161612830565b6001600160a01b031614806121e657503361217a612830565b6001600160a01b0316635aa6e6756040518163ffffffff1660e01b8152600401602060405180830381865afa1580156121b7573d6000803e3d6000fd5b505050506040513d601f19601f820116820180604052508101906121db919061586d565b6001600160a01b0316145b6040518060400160405280600d81526020016c29ab1d102337b93134b23232b760991b8152509061222a5760405162461bcd60e51b8152600401610f669190615309565b50612233612792565b6001600160a01b031663bfd131f16040518163ffffffff1660e01b8152600401600060405180830381600087803b15801561226d57600080fd5b505af1158015611786573d6000803e3d6000fd5b61228a33612ff4565b612294338261416f565b610d4f81614229565b6122a6336126d1565b6122ae613d81565b6122b757600080fd5b6122bf61208d565b156122c957600080fd5b6122d16115b7565b156122db57600080fd5b611659614348565b6060609a80548060200260200160405190810160405280929190818152602001828054801561233b57602002820191906000526020600020905b81546001600160a01b0316815260019091019060200180831161231d575b5050505050905090565b6000610aca6143c5565b61235833612a1b565b6040518060400160405280600d81526020016c29ab1d102337b93134b23232b760991b8152509061239c5760405162461bcd60e51b8152600401610f669190615309565b50610d4f81614417565b6123ae613630565b6123b733612ff4565b6123c2813333613675565b610d4f613949565b6000610ada82612a1b565b600073__VaultLibrary__________________________6338fa99356123fb8585612d9a565b6001600160a01b038516600090815260a2602052604090205461241c612830565b612424612aa0565b6040516001600160e01b031960e087901b168152600481019490945260248401929092526001600160a01b0316604483015215156064820152608401602060405180830381865af415801561247d573d6000803e3d6000fd5b505050506040513d601f19601f82011682018060405250810190610f9f9190615717565b6124aa336126d1565b610d4f81614496565b600054610100900460ff16806124cc575060005460ff16155b6124e85760405162461bcd60e51b8152600401610f66906157cf565b600054610100900460ff1615801561250a576000805461ffff19166101011790555b61251382614523565b61251c4261456a565b61252543614597565b604080516001600160a01b0384168152426020820152438183015290517f1a2dd071001ebf6e03174e3df5b305795a4ad5d41d8fdb9ba41dbbe2367134269181900360600190a18015610f8f576000805461ff00191690555050565b61258a33612ff4565b6125926130ac565b61165961259e33611c7b565b613104565b6000610ada826145c4565b6000610aca612830565b6000610aca6040518060400160405280600681526020016561637469766560d01b815250613d3b565b6000805b609a5481101561263e57826001600160a01b0316609a828154811061260c5761260c615701565b6000918252602090912001546001600160a01b03160361262c5792915050565b806126368161575f565b9150506125e5565b5060001992915050565b606060368054612657906156c7565b80601f0160208091040260200160405190810160405280929190818152602001828054612683906156c7565b801561233b5780601f106126a55761010080835404028352916020019161233b565b820191906000526020600020905b8154815290600101906020018083116126b357509395945050505050565b806001600160a01b03166126e3612830565b6001600160a01b0316635f36b0486040518163ffffffff1660e01b8152600401602060405180830381865afa158015612720573d6000803e3d6000fd5b505050506040513d601f19601f82011682018060405250810190612744919061586d565b6001600160a01b0316146040518060400160405280600d81526020016c29ab1d102337b93134b23232b760991b81525090610f8f5760405162461bcd60e51b8152600401610f669190615309565b6000610aca60405180604001604052806008815260200167737472617465677960c01b815250614688565b6040516561637469766560d01b815260060160405180910390206000805160206159fe8339815191526127ee6125b8565b60408051911515825284151560208301520160405180910390a2610d4f6040518060400160405280600681526020016561637469766560d01b81525082613c74565b60008061118d60017f5165972ef41194f06c5007493031d0b927c20741adcb74403b954009fd2c36186157b8565b610dd98363a9059cbb60e01b848460405160240161287d929190615730565b60408051601f198184030181529190526020810180516001600160e01b03166001600160e01b0319909316929092179091526146d4565b6001600160a01b0383166129165760405162461bcd60e51b8152602060048201526024808201527f45524332303a20617070726f76652066726f6d20746865207a65726f206164646044820152637265737360e01b6064820152608401610f66565b6001600160a01b0382166129775760405162461bcd60e51b815260206004820152602260248201527f45524332303a20617070726f766520746f20746865207a65726f206164647265604482015261737360f01b6064820152608401610f66565b6001600160a01b0383811660008181526034602090815260408083209487168084529482529182902085905590518481527f8c5be1e5ebec7d5bd14f71427d1e84f3dd0314c0f7b2291e5b200ac8c7c3b925910160405180910390a3505050565b600060656000836040516020016129ef91906158cd565b604051602081830303815290604052805190602001208152602001908152602001600020549050919050565b6000816001600160a01b0316612a2f612830565b6001600160a01b0316635aa6e6756040518163ffffffff1660e01b8152600401602060405180830381865afa158015612a6c573d6000803e3d6000fd5b505050506040513d601f19601f82011682018060405250810190612a90919061586d565b6001600160a01b03161492915050565b6000610aca6040518060400160405280600e81526020016d70726f74656374696f6e4d6f646560901b815250613d3b565b6000610aca612ade612792565b612ae6612b57565b6001600160a01b03166370a08231306040518263ffffffff1660e01b8152600401612b119190615666565b602060405180830381865afa158015612b2e573d6000803e3d6000fd5b505050506040513d601f19601f82011682018060405250810190612b529190615717565b6147a6565b6000610aca6040518060400160405280600a815260200169756e6465726c79696e6760b01b815250614688565b611786846323b872dd60e01b85858560405160240161287d9392919061588a565b612baf6000613dd3565b600019612bbb826125e1565b03612bfb5760405162461bcd60e51b815260206004820152601060248201526f14d58e881495081b9bdd08199bdd5b9960821b6044820152606401610f66565b600182118015612c1d5750612c1a670de0b6b3a764000060001961581d565b82105b15610f8f57612c2b816145c4565b6001600160a01b0382166000908152609e6020526040902055612c4d81613daf565b6001600160a01b0382166000908152609d6020908152604080832093909355609b905220544210612cdb57612c94612c83612830565b6001600160a01b038316908461285e565b806001600160a01b03167fa0a064cd533191c80e9959052dbf2dc22b467b673ab74a2b65b80758bd2f11c283604051612ccf91815260200190565b60405180910390a25050565b6001600160a01b0381166000908152609b6020526040812054612cff9042906157b8565b6001600160a01b0383166000908152609c602052604081205491925090612d2690836158ae565b905081612d33828661583f565b612d3d919061581d565b6001600160a01b0384166000818152609c6020526040908190209290925590517f9b4e96a6351f293ca14cb079a95b75178cb34aec2f658b9705e3b6f20631e7ac90612d8c9087815260200190565b60405180910390a250505050565b6001600160a01b03808316600081815260a06020908152604080832094861680845294825280832054938352609f825280832094835293905291822054670de0b6b3a764000090612dea866145c4565b612df491906157b8565b612dfd85611c7b565b612e0791906158ae565b612e11919061581d565b610f9f919061583f565b6001600160a01b038316612e7f5760405162461bcd60e51b815260206004820152602560248201527f45524332303a207472616e736665722066726f6d20746865207a65726f206164604482015264647265737360d81b6064820152608401610f66565b6001600160a01b038216612ee15760405162461bcd60e51b815260206004820152602360248201527f45524332303a207472616e7366657220746f20746865207a65726f206164647260448201526265737360e81b6064820152608401610f66565b612eec838383614829565b6001600160a01b03831660009081526033602052604090205481811015612f645760405162461bcd60e51b815260206004820152602660248201527f45524332303a207472616e7366657220616d6f756e7420657863656564732062604482015265616c616e636560d01b6064820152608401610f66565b6001600160a01b03808516600090815260336020526040808220858503905591851681529081208054849290612f9b90849061583f565b92505081905550826001600160a01b0316846001600160a01b03167fddf252ad1be2c89b69c2b068fc378daa952ba7f163c4a11628f55a4df523b3ef84604051612fe791815260200190565b60405180910390a3611786565b612ffc612830565b6001600160a01b0316639fe34d9f826040518263ffffffff1660e01b81526004016130279190615666565b602060405180830381865afa158015613044573d6000803e3d6000fd5b505050506040513d601f19601f820116820180604052508101906130689190615778565b6040518060400160405280600d81526020016c29ab1d102337b93134b23232b760991b81525090610f8f5760405162461bcd60e51b8152600401610f669190615309565b6130b533613dd3565b60005b609a54811015610d4f576130f2609a82815481106130d8576130d8615701565b6000918252602090912001546001600160a01b0316614229565b806130fc8161575f565b9150506130b8565b61310c614aec565b1561314e5760405162461bcd60e51b815260206004820152601260248201527114d58e881499595b9d1c985b9d0818d85b1b60721b6044820152606401610f66565b6131586001614b1c565b61316133613dd3565b600061316c60355490565b116131b95760405162461bcd60e51b815260206004820152601a60248201527f53563a204e6f2073686172657320666f722077697468647261770000000000006044820152606401610f66565b600081116132095760405162461bcd60e51b815260206004820152601c60248201527f53563a205a65726f20616d6f756e7420666f72207769746864726177000000006044820152606401610f66565b600061321460355490565b905061321e613d81565b1561322f5761322c82614b4b565b91505b613237612830565b6001600160a01b03166347b03bba6040518163ffffffff1660e01b8152600401602060405180830381865afa158015613274573d6000803e3d6000fd5b505050506040513d601f19601f82011682018060405250810190613298919061586d565b60405163245afa8b60e01b815233600482015260248101849052600060448201526001600160a01b03919091169063245afa8b90606401600060405180830381600087803b1580156132e957600080fd5b505af19250505080156132fa575060015b50600073__VaultLibrary__________________________63ef61329a84613320612b57565b85613329614018565b613331612792565b6040516001600160e01b031960e088901b16815260048101959095526001600160a01b0393841660248601526044850192909252606484015216608482015260a401602060405180830381865af4158015613390573d6000803e3d6000fd5b505050506040513d601f19601f820116820180604052508101906133b49190615717565b90506133c03384614c27565b6133dd33826133cd612b57565b6001600160a01b0316919061285e565b6133e76000614b1c565b60405181815233907f884edad9ce6fa2440d8a54cc123490eb96d2768479d49ff9c7366125a9424364906020015b60405180910390a2505050565b60405167737472617465677960c01b815260080160405180910390207f92bd1dcb0fe9472f837bda3f8ad3084fe0473337d40ad361782901f142d2ce25613467612792565b604080516001600160a01b03928316815291851660208301520160405180910390a2610d4f60405180604001604052806008815260200167737472617465677960c01b81525082614d81565b600054610100900460ff16806134cc575060005460ff16155b6134e85760405162461bcd60e51b8152600401610f66906157cf565b600054610100900460ff1615801561350a576000805461ffff19166101011790555b613512614de3565b61351c8383614e4e565b8015610dd9576000805461ff0019169055505050565b604051671d1bd25b9d995cdd60c21b81526008016040518091039020600080516020615a1e833981519152613565614018565b60408051918252602082018590520160405180910390a2610d4f604051806040016040528060088152602001671d1bd25b9d995cdd60c21b81525082614ee3565b604051723232b837b9b4ba2332b2a73ab6b2b930ba37b960691b81526013016040518091039020600080516020615a1e8339815191526135e46115e4565b60408051918252602082018590520160405180910390a2610d4f604051806040016040528060138152602001723232b837b9b4ba2332b2a73ab6b2b930ba37b960691b81525082614ee3565b6136386125b8565b6116595760405162461bcd60e51b815260206004820152600e60248201526d53563a204e6f742061637469766560901b6044820152606401610f66565b61367d614aec565b156136bf5760405162461bcd60e51b815260206004820152601260248201527114d58e881499595b9d1c985b9d0818d85b1b60721b6044820152606401610f66565b6136c96001614b1c565b6136d281613dd3565b600083116137145760405162461bcd60e51b815260206004820152600f60248201526e14d58e8816995c9bc8185b5bdd5b9d608a1b6044820152606401610f66565b6001600160a01b03811661376a5760405162461bcd60e51b815260206004820181905260248201527f53563a205a65726f2062656e656669636961727920666f72206465706f7369746044820152606401610f66565b600061377560355490565b1561379e57613782612ad1565b60355461378f90866158ae565b613799919061581d565b6137a0565b835b90508015613910576127106137b36115e4565b6137bf906127106157b8565b6137c990836158ae565b6137d3919061581d565b90506137df8282614f25565b6137fe8330866137ed612b57565b6001600160a01b0316929190612b84565b613806612830565b6001600160a01b03166347b03bba6040518163ffffffff1660e01b8152600401602060405180830381865afa158015613843573d6000803e3d6000fd5b505050506040513d601f19601f82011682018060405250810190613867919061586d565b60405163245afa8b60e01b81526001600160a01b0384811660048301526024820184905260016044830152919091169063245afa8b90606401600060405180830381600087803b1580156138ba57600080fd5b505af19250505080156138cb575060015b50816001600160a01b03167fe1fffcc4923d04b559f4d29a8bfc6cda04eb5b0d3c460751c2402c5c5cc9109c8560405161390791815260200190565b60405180910390a25b6117866000614b1c565b6000610aca6040518060400160405280600c81526020016b185b1dd85e5cd25b9d995cdd60a21b815250613d3b565b6000613953612792565b6001600160a01b03160361396657600080fd5b61396e613a81565b8015613993575061397d612792565b6001600160a01b0316336001600160a01b031614155b156139a0576139a0613aaa565b60006139aa614043565b90508015610d4f576139c66139bd612792565b826133cd612b57565b6139ce612792565b6001600160a01b0316634a8cfa696040518163ffffffff1660e01b8152600401600060405180830381600087803b158015613a0857600080fd5b505af1158015613a1c573d6000803e3d6000fd5b505050507fa09b7ae452b7bffb9e204c3a016e80caeecf46f554d112644f36fa114dac6ffa81604051613a5191815260200190565b60405180910390a150565b6000613a66612830565b6001600160a01b0316826001600160a01b0316149050919050565b6000610aca60405180604001604052806006815260200165343bafb4b73b60d11b815250613d3b565b6000613ab4613e9b565b9050613abe612792565b6001600160a01b0316634fa5d8546040518163ffffffff1660e01b8152600401600060405180830381600087803b158015613af857600080fd5b505af1158015613b0c573d6000803e3d6000fd5b50505050613b186117a0565b80613b2a5750613b26613e9b565b8111155b610d4f5760405162461bcd60e51b815260206004820152601260248201527114d58e8814141194c8191958dc99585cd95960721b6044820152606401610f66565b60405169756e6465726c79696e6760b01b8152600a0160405180910390207f92bd1dcb0fe9472f837bda3f8ad3084fe0473337d40ad361782901f142d2ce25613bb2612b57565b604080516001600160a01b03928316815291851660208301520160405180910390a2610d4f6040518060400160405280600a815260200169756e6465726c79696e6760b01b81525082614d81565b60405167323ab930ba34b7b760c11b81526008016040518091039020600080516020615a1e833981519152613c33610d68565b60408051918252602082018590520160405180910390a2610d4f60405180604001604052806008815260200167323ab930ba34b7b760c11b81525082614ee3565b806067600084604051602001613c8a91906158cd565b60408051808303601f19018152918152815160209283012083529082019290925201600020805460ff19169115159190911790555050565b6000613ccc612b57565b6001600160a01b031663313ce5676040518163ffffffff1660e01b8152600401602060405180830381865afa158015613d09573d6000803e3d6000fd5b505050506040513d601f19601f82011682018060405250810190613d2d9190615795565b610aca9060ff16600a6159cd565b60006067600083604051602001613d5291906158cd565b60408051601f198184030181529181528151602092830120835290820192909252016000205460ff1692915050565b6000610aca6040518060400160405280600b81526020016a1b1bd8dad05b1b1bddd95960aa1b815250613d3b565b6001600160a01b0381166000908152609b6020526040812054610ada904290615010565b60005b609a54811015610f8f57613e1182609a8381548110613df757613df7615701565b6000918252602090912001546001600160a01b031661416f565b80613e1b8161575f565b915050613dd6565b604051691b1bd8dad4195c9a5bd960b21b8152600a016040518091039020600080516020615a1e833981519152613e586115b7565b60408051918252602082018590520160405180910390a2610d4f6040518060400160405280600a8152602001691b1bd8dad4195c9a5bd960b21b81525082614ee3565b6000613ea660355490565b15613ed257603554613eb6612ad1565b613ebe613cc2565b613ec891906158ae565b610aca919061581d565b610aca613cc2565b60405165343bafb4b73b60d11b815260060160405180910390206000805160206159fe833981519152613f0b613a81565b60408051911515825284151560208301520160405180910390a2610d4f60405180604001604052806006815260200165343bafb4b73b60d11b81525082613c74565b6040516a6c6f636b50656e616c747960a81b8152600b016040518091039020600080516020615a1e833981519152613f8361208d565b60408051918252602082018590520160405180910390a2610d4f6040518060400160405280600b81526020016a6c6f636b50656e616c747960a81b81525082614ee3565b6000613fd260355490565b600003613fe157506000919050565b603554613fed83611c7b565b613ff5612ad1565b613fff91906158ae565b610ada919061581d565b606060378054612657906156c7565b6000610aca604051806040016040528060088152602001671d1bd25b9d995cdd60c21b8152506129d8565b600073__VaultLibrary__________________________63df302941614067612792565b61406f614018565b6140776143c5565b6040516001600160e01b031960e086901b1681526001600160a01b03909316600484015260248301919091526044820152606401602060405180830381865af41580156140c8573d6000803e3d6000fd5b505050506040513d601f19601f82011682018060405250810190610aca9190615717565b6040516d70726f74656374696f6e4d6f646560901b8152600e0160405180910390206000805160206159fe833981519152614125612aa0565b60408051911515825284151560208301520160405180910390a2610d4f6040518060400160405280600e81526020016d70726f74656374696f6e4d6f646560901b81525082613c74565b614178816145c4565b6001600160a01b0382166000908152609e602052604090205561419a81613daf565b6001600160a01b038083166000908152609d60205260409020919091558216158015906141d057506001600160a01b0382163014155b15610f8f576141df8183612d9a565b6001600160a01b03918216600081815260a0602090815260408083209690951680835295815284822093909355908152609e825282812054609f8352838220948252939091522055565b60008073__VaultLibrary__________________________6365c45de7846142518633612d9a565b60a261425b612830565b614263612aa0565b60405160e087901b6001600160e01b03191681526001600160a01b039586166004820152602481019490945260448401929092529092166064820152901515608482015260a060a482015260c4016040805180830381865af41580156142cd573d6000803e3d6000fd5b505050506040513d601f19601f820116820180604052508101906142f191906159d9565b9150915081600014614307576143078284612ba5565b8015610dd957336001600160a01b03167f540798df468d7b23d11f156fdb954cb19ad414d150722a7b6d55ba369dea792e8484604051613415929190615730565b6040516a1b1bd8dad05b1b1bddd95960aa1b8152600b0160405180910390206000805160206159fe83398151915261437e613d81565b604080519115158252600060208301520160405180910390a26116596040518060400160405280600b81526020016a1b1bd8dad05b1b1bddd95960aa1b8152506000613c74565b60006143cf612b57565b6001600160a01b03166370a08231306040518263ffffffff1660e01b81526004016143fa9190615666565b602060405180830381865afa1580156140c8573d6000803e3d6000fd5b6040516b185b1dd85e5cd25b9d995cdd60a21b8152600c0160405180910390206000805160206159fe83398151915261444e61391a565b60408051911515825284151560208301520160405180910390a2610d4f6040518060400160405280600c81526020016b185b1dd85e5cd25b9d995cdd60a21b81525082613c74565b604051721c1c199cd11958dc99585cd9505b1b1bddd959606a1b815260130160405180910390206000805160206159fe8339815191526144d46117a0565b60408051911515825284151560208301520160405180910390a2610d4f604051806040016040528060138152602001721c1c199cd11958dc99585cd9505b1b1bddd959606a1b81525082613c74565b6001600160a01b03811661453657600080fd5b600061456360017f5165972ef41194f06c5007493031d0b927c20741adcb74403b954009fd2c36186157b8565b9190915550565b600061456360017f6f55f470bdc9cb5f04223fd822021061668e4dccb43e8727b295106dc9769c8b6157b8565b600061456360017f812a673dfca07956350df10f8a654925f561d7a0da09bdbe79e653939a14d9f16157b8565b6000806145d030611c7b565b6035546145dd91906157b8565b9050806000036146045750506001600160a01b03166000908152609e602052604090205490565b6001600160a01b0383166000908152609c6020908152604080832054609d9092529091205482919061463586613daf565b61463f91906157b8565b61464991906158ae565b61465b90670de0b6b3a76400006158ae565b614665919061581d565b6001600160a01b0384166000908152609e6020526040902054610f9f919061583f565b6000606660008360405160200161469f91906158cd565b60408051601f19818403018152918152815160209283012083529082019290925201600020546001600160a01b031692915050565b6000614729826040518060400160405280602081526020017f5361666545524332303a206c6f772d6c6576656c2063616c6c206661696c6564815250856001600160a01b03166150269092919063ffffffff16565b805190915015610dd957808060200190518101906147479190615778565b610dd95760405162461bcd60e51b815260206004820152602a60248201527f5361666545524332303a204552433230206f7065726174696f6e20646964206e6044820152691bdd081cdd58d8d9595960b21b6064820152608401610f66565b60006001600160a01b0383166147bd575080610ada565b826001600160a01b03166345d01e4a6040518163ffffffff1660e01b8152600401602060405180830381865afa1580156147fb573d6000803e3d6000fd5b505050506040513d601f19601f8201168201806040525081019061481f9190615717565b610f9f908361583f565b61483283613dd3565b61483b82613dd3565b6001600160a01b0383166148df5761485282613fc7565b600003614875576001600160a01b038216600090815260a2602052604090204290555b6001600160a01b038216600090815260a3602052604090205415801561489e575061489e613d81565b156148bf576001600160a01b038216600090815260a3602052604090204290555b6001600160a01b038216600090815260a460205260409020429055614a27565b6001600160a01b03821661490d576001600160a01b038316600090815260a160205260409020429055614a27565b614915613d81565b158061492957506001600160a01b03821630145b8061493c57506001600160a01b03831630145b8061495f575061494a612830565b6001600160a01b0316836001600160a01b0316145b6040518060400160405280600d81526020016c29ab1d102337b93134b23232b760991b815250906149a35760405162461bcd60e51b8152600401610f669190615309565b506149ad82613fc7565b6000036149d0576001600160a01b038216600090815260a2602052604090204290555b6001600160a01b038216600090815260a460205260408120549003614a0b576001600160a01b038216600090815260a4602052604090204290555b6001600160a01b038316600090815260a1602052604090204290555b614a2f612830565b6001600160a01b03166347b03bba6040518163ffffffff1660e01b8152600401602060405180830381865afa158015614a6c573d6000803e3d6000fd5b505050506040513d601f19601f82011682018060405250810190614a90919061586d565b6001600160a01b031663ef64eada8484846040518463ffffffff1660e01b8152600401614abf9392919061588a565b600060405180830381600087803b158015614ad957600080fd5b505af19250505080156117865750505050565b6000610aca6040518060400160405280600d81526020016c7265656e7472616e744c6f636b60981b815250613d3b565b610d4f6040518060400160405280600d81526020016c7265656e7472616e744c6f636b60981b81525082613c74565b600080600073__VaultLibrary__________________________637ea05c718560a3614b756115b7565b614b7d61208d565b614b8633611c7b565b6040516001600160e01b031960e088901b1681526004810195909552602485019390935260448401919091526064830152608482015260a4016040805180830381865af4158015614bdb573d6000803e3d6000fd5b505050506040513d601f19601f82011682018060405250810190614bff91906159d9565b9150915080600014614c2057614c16333083612e1b565b614c208130612ba5565b5092915050565b6001600160a01b038216614c875760405162461bcd60e51b815260206004820152602160248201527f45524332303a206275726e2066726f6d20746865207a65726f206164647265736044820152607360f81b6064820152608401610f66565b614c9382600083614829565b6001600160a01b03821660009081526033602052604090205481811015614d075760405162461bcd60e51b815260206004820152602260248201527f45524332303a206275726e20616d6f756e7420657863656564732062616c616e604482015261636560f01b6064820152608401610f66565b6001600160a01b0383166000908152603360205260408120838303905560358054849290614d369084906157b8565b90915550506040518281526000906001600160a01b038516907fddf252ad1be2c89b69c2b068fc378daa952ba7f163c4a11628f55a4df523b3ef9060200160405180910390a3505050565b806066600084604051602001614d9791906158cd565b60405160208183030381529060405280519060200120815260200190815260200160002060006101000a8154816001600160a01b0302191690836001600160a01b031602179055505050565b600054610100900460ff1680614dfc575060005460ff16155b614e185760405162461bcd60e51b8152600401610f66906157cf565b600054610100900460ff16158015614e3a576000805461ffff19166101011790555b8015610d4f576000805461ff001916905550565b600054610100900460ff1680614e67575060005460ff16155b614e835760405162461bcd60e51b8152600401610f66906157cf565b600054610100900460ff16158015614ea5576000805461ffff19166101011790555b8251614eb8906036906020860190615222565b508151614ecc906037906020850190615222565b508015610dd9576000805461ff0019169055505050565b806065600084604051602001614ef991906158cd565b604051602081830303815290604052805190602001208152602001908152602001600020819055505050565b6001600160a01b038216614f7b5760405162461bcd60e51b815260206004820152601f60248201527f45524332303a206d696e7420746f20746865207a65726f2061646472657373006044820152606401610f66565b614f8760008383614829565b8060356000828254614f99919061583f565b90915550506001600160a01b03821660009081526033602052604081208054839290614fc690849061583f565b90915550506040518181526001600160a01b038316906000907fddf252ad1be2c89b69c2b068fc378daa952ba7f163c4a11628f55a4df523b3ef9060200160405180910390a35050565b600081831061501f5781610f9f565b5090919050565b6060615035848460008561503d565b949350505050565b60608247101561509e5760405162461bcd60e51b815260206004820152602660248201527f416464726573733a20696e73756666696369656e742062616c616e636520666f6044820152651c8818d85b1b60d21b6064820152608401610f66565b843b6150ec5760405162461bcd60e51b815260206004820152601d60248201527f416464726573733a2063616c6c20746f206e6f6e2d636f6e74726163740000006044820152606401610f66565b600080866001600160a01b0316858760405161510891906158cd565b60006040518083038185875af1925050503d8060008114615145576040519150601f19603f3d011682016040523d82523d6000602084013e61514a565b606091505b509150915061515a828286615165565b979650505050505050565b60608315615174575081610f9f565b8251156151845782518084602001fd5b8160405162461bcd60e51b8152600401610f669190615309565b8280546151aa906156c7565b90600052602060002090601f0160209004810192826151cc5760008555615212565b82601f106151e55782800160ff19823516178555615212565b82800160010185558215615212579182015b828111156152125782358255916020019190600101906151f7565b5061521e929150615296565b5090565b82805461522e906156c7565b90600052602060002090601f0160209004810192826152505760008555615212565b82601f1061526957805160ff1916838001178555615212565b82800160010185558215615212579182015b8281111561521257825182559160200191906001019061527b565b5b8082111561521e5760008155600101615297565b6001600160a01b0381168114610d4f57600080fd5b6000602082840312156152d257600080fd5b8135610f9f816152ab565b60005b838110156152f85781810151838201526020016152e0565b838111156117865750506000910152565b60208152600082518060208401526153288160408501602087016152dd565b601f01601f19169190910160400192915050565b6000806040838503121561534f57600080fd5b823561535a816152ab565b946020939093013593505050565b6000806020838503121561537b57600080fd5b823567ffffffffffffffff8082111561539357600080fd5b818501915085601f8301126153a757600080fd5b8135818111156153b657600080fd5b8660208285010111156153c857600080fd5b60209290920196919550909350505050565b600080604083850312156153ed57600080fd5b82356153f8816152ab565b91506020830135615408816152ab565b809150509250929050565b60008060006060848603121561542857600080fd5b8335615433816152ab565b92506020840135615443816152ab565b929592945050506040919091013590565b60006020828403121561546657600080fd5b5035919050565b634e487b7160e01b600052604160045260246000fd5b600082601f83011261549457600080fd5b813567ffffffffffffffff808211156154af576154af61546d565b604051601f8301601f19908116603f011681019082821181831017156154d7576154d761546d565b816040528381528660208588010111156154f057600080fd5b836020870160208301376000602085830101528094505050505092915050565b8015158114610d4f57600080fd5b600080600080600080600080610100898b03121561553b57600080fd5b883567ffffffffffffffff8082111561555357600080fd5b61555f8c838d01615483565b995060208b013591508082111561557557600080fd5b506155828b828c01615483565b9750506040890135615593816152ab565b955060608901356155a3816152ab565b94506080890135935060a08901356155ba81615510565b925060c08901356155ca816152ab565b8092505060e089013590509295985092959890939650565b600080604083850312156155f557600080fd5b823591506020830135615408816152ab565b60006020828403121561561957600080fd5b8135610f9f81615510565b60008060006060848603121561563957600080fd5b8335615644816152ab565b925060208401359150604084013561565b81615510565b809150509250925092565b6001600160a01b0391909116815260200190565b6020808252825182820181905260009190848201906040850190845b818110156156bb5783516001600160a01b031683529284019291840191600101615696565b50909695505050505050565b600181811c908216806156db57607f821691505b6020821081036156fb57634e487b7160e01b600052602260045260246000fd5b50919050565b634e487b7160e01b600052603260045260246000fd5b60006020828403121561572957600080fd5b5051919050565b6001600160a01b03929092168252602082015260400190565b634e487b7160e01b600052601160045260246000fd5b60006001820161577157615771615749565b5060010190565b60006020828403121561578a57600080fd5b8151610f9f81615510565b6000602082840312156157a757600080fd5b815160ff81168114610f9f57600080fd5b6000828210156157ca576157ca615749565b500390565b6020808252602e908201527f496e697469616c697a61626c653a20636f6e747261637420697320616c72656160408201526d191e481a5b9a5d1a585b1a5e995960921b606082015260800190565b60008261583a57634e487b7160e01b600052601260045260246000fd5b500490565b6000821982111561585257615852615749565b500190565b634e487b7160e01b600052603160045260246000fd5b60006020828403121561587f57600080fd5b8151610f9f816152ab565b6001600160a01b039384168152919092166020820152604081019190915260600190565b60008160001904831182151516156158c8576158c8615749565b500290565b600082516158df8184602087016152dd565b9190910192915050565b600181815b8085111561592457816000190482111561590a5761590a615749565b8085161561591757918102915b93841c93908002906158ee565b509250929050565b60008261593b57506001610ada565b8161594857506000610ada565b816001811461595e576002811461596857615984565b6001915050610ada565b60ff84111561597957615979615749565b50506001821b610ada565b5060208310610133831016604e8410600b84101617156159a7575081810a610ada565b6159b183836158e9565b80600019048211156159c5576159c5615749565b029392505050565b6000610f9f838361592c565b600080604083850312156159ec57600080fd5b50508051602090910151909290915056fe8ca56901b0d9a63b37321fd7698570f1c92dacdacedf62e2a3c8347f4a514bb0db6752b9ae7079fea4a42c6db0ee23fed4ce55ab9e249719b8736e3b32bea282a26469706673582212206a6a16c22bd35bc087501d6998256bc7543a2bd0ab27108180a9871a6a24cf2064736f6c634300080d0033",
  "immutableReferences": {},
  "source": "// SPDX-License-Identifier: ISC\n/**\n * By using this software, you understand, acknowledge and accept that Tetu\n * and/or the underlying software are provided as is and as available\n * basis and without warranties or representations of any kind either expressed\n * or implied. Any use of this open source software released under the ISC\n * Internet Systems Consortium license is done at your own risk to the fullest\n * extent permissible pursuant to applicable law any and all liability as well\n * as all warranties, including any fitness for a particular purpose with respect\n * to Tetu and/or the underlying software and the use thereof are disclaimed.\n */\n\npragma solidity ^0.8.0;\n\nimport \"./openzeppelin/Math.sol\";\nimport \"./openzeppelin/SafeERC20.sol\";\nimport \"./openzeppelin/IERC20.sol\";\nimport \"./openzeppelin/ERC20Upgradeable.sol\";\nimport \"./VaultStorage.sol\";\nimport \"./VaultLibrary.sol\";\nimport \"./governance/ControllableV2.sol\";\nimport \"./interface/IStrategy.sol\";\nimport \"./interface/IController.sol\";\nimport \"./interface/IBookkeeper.sol\";\nimport \"./interface/IVaultController.sol\";\n\n/// @title Smart Vault is a combination of implementations drawn from Synthetix pool\n///        for their innovative reward vesting and Yearn vault for their share price model\n/// @dev Use with TetuProxy\n/// @author belbix\ncontract SmartVault is\n    Initializable,\n    ERC20Upgradeable,\n    VaultStorage,\n    ControllableV2\n{\n    using SafeERC20 for IERC20;\n\n    // ************* CONSTANTS ********************\n    /// @notice Version of the contract\n    /// @dev Should be incremented when contract changed\n    string public constant VERSION = \"1.10.2_r1\";\n    /// @dev Denominator for penalty numerator\n    uint256 public constant LOCK_PENALTY_DENOMINATOR = 1000;\n    uint256 public constant TO_INVEST_DENOMINATOR = 1000;\n    uint256 public constant DEPOSIT_FEE_DENOMINATOR = 10000;\n    uint256 private constant NAME_OVERRIDE_ID = 0;\n    uint256 private constant SYMBOL_OVERRIDE_ID = 1;\n    string private constant FORBIDDEN_MSG = \"SV: Forbidden\";\n\n    // ********************* VARIABLES *****************\n    //in upgradable contracts you can skip storage ONLY for mapping and dynamically-sized array types\n    //https://docs.soliditylang.org/en/v0.4.21/miscellaneous.html#layout-of-state-variables-in-storage\n    //use VaultStorage for primitive variables\n\n    // ****** REWARD MECHANIC VARIABLES ******** //\n    /// @dev A list of reward tokens that able to be distributed to this contract\n    address[] internal _rewardTokens;\n    /// @dev Timestamp value when current period of rewards will be ended\n    mapping(address => uint256) public override periodFinishForToken;\n    /// @dev Reward rate in normal circumstances is distributed rewards divided on duration\n    mapping(address => uint256) public override rewardRateForToken;\n    /// @dev Last rewards snapshot time. Updated on each share movements\n    mapping(address => uint256) public override lastUpdateTimeForToken;\n    /// @dev Rewards snapshot calculated from rewardPerToken(rt). Updated on each share movements\n    mapping(address => uint256) public override rewardPerTokenStoredForToken;\n    /// @dev User personal reward rate snapshot. Updated on each share movements\n    mapping(address => mapping(address => uint256))\n        public\n        override userRewardPerTokenPaidForToken;\n    /// @dev User personal earned reward snapshot. Updated on each share movements\n    mapping(address => mapping(address => uint256))\n        public\n        override rewardsForToken;\n\n    // ******** OTHER VARIABLES **************** //\n    /// @dev Only for statistical purposes, no guarantee to be accurate\n    ///      Last timestamp value when user withdraw. Resets on transfer\n    mapping(address => uint256) public override userLastWithdrawTs;\n    /// @dev In normal circumstances hold last claim timestamp for users\n    mapping(address => uint256) public override userBoostTs;\n    /// @dev In normal circumstances hold last withdraw timestamp for users\n    mapping(address => uint256) public override userLockTs;\n    /// @dev Only for statistical purposes, no guarantee to be accurate\n    ///      Last timestamp value when user deposit. Doesn't update on transfers\n    mapping(address => uint256) public override userLastDepositTs;\n    /// @dev VaultStorage doesn't have a map for strings so we need to add it here\n    mapping(uint256 => string) private _nameOverrides;\n\n    /// @notice Initialize contract after setup it as proxy implementation\n    /// @dev Use it only once after first logic setup\n    /// @param _name ERC20 name\n    /// @param _symbol ERC20 symbol\n    /// @param _controller Controller address\n    /// @param __underlying Vault underlying address\n    /// @param _duration Rewards duration\n    /// @param _lockAllowed Set true with lock mechanic requires\n    /// @param _rewardToken Reward token address. Set zero address if not requires\n    function initializeSmartVault(\n        string memory _name,\n        string memory _symbol,\n        address _controller,\n        address __underlying,\n        uint256 _duration,\n        bool _lockAllowed,\n        address _rewardToken,\n        uint256 _depositFee\n    ) external initializer {\n        __ERC20_init(_name, _symbol);\n\n        ControllableV2.initializeControllable(_controller);\n        VaultStorage.initializeVaultStorage(\n            __underlying,\n            _duration,\n            _lockAllowed\n        );\n        // initialize reward token for easily deploy new vaults from deployer address\n        if (_rewardToken != address(0)) {\n            require(_rewardToken != _underlying());\n            _rewardTokens.push(_rewardToken);\n        }\n        // set 100% to invest\n        _setToInvest(TO_INVEST_DENOMINATOR);\n        // set deposit fee\n        if (_depositFee > 0) {\n            require(_depositFee <= DEPOSIT_FEE_DENOMINATOR / 100);\n            _setDepositFeeNumerator(_depositFee);\n        }\n    }\n\n    // *************** EVENTS ***************************\n    event Withdraw(address indexed beneficiary, uint256 amount);\n    event Deposit(address indexed beneficiary, uint256 amount);\n    event Invest(uint256 amount);\n    event StrategyAnnounced(address newStrategy, uint256 time);\n    event StrategyChanged(address newStrategy, address oldStrategy);\n    event RewardAdded(address rewardToken, uint256 reward);\n    event RewardMovedToController(address rewardToken, uint256 amount);\n    event Staked(address indexed user, uint256 amount);\n    event Withdrawn(address indexed user, uint256 amount);\n    event RewardPaid(address indexed user, address rewardToken, uint256 reward);\n    event RewardDenied(\n        address indexed user,\n        address rewardToken,\n        uint256 reward\n    );\n    event AddedRewardToken(address indexed token);\n    event RemovedRewardToken(address indexed token);\n    event RewardRecirculated(address indexed token, uint256 amount);\n    event RewardSentToController(address indexed token, uint256 amount);\n\n    // *************** RESTRICTIONS ***************************\n\n    /// @dev Allow operation only for VaultController\n    function _onlyVaultController(address _sender) private view {\n        require(\n            IController(_controller()).vaultController() == _sender,\n            FORBIDDEN_MSG\n        );\n    }\n\n    /// @dev Allowed only for active strategy\n    function _isActive() private view {\n        require(_active(), \"SV: Not active\");\n    }\n\n    /// @dev Only smart contracts will be affected by this restriction\n    ///      If it is a contract it should be whitelisted\n    function _onlyAllowedUsers(address _sender) private view {\n        require(\n            IController(_controller()).isAllowedUser(_sender),\n            FORBIDDEN_MSG\n        );\n    }\n\n    // ************ COMMON VIEWS ***********************\n\n    function name() public view override returns (string memory) {\n        string memory nameForOverride = _nameOverrides[NAME_OVERRIDE_ID];\n        if (bytes(nameForOverride).length != 0) {\n            return nameForOverride;\n        }\n        return super.name();\n    }\n\n    function symbol() public view override returns (string memory) {\n        string memory symbolForOverride = _nameOverrides[SYMBOL_OVERRIDE_ID];\n        if (bytes(symbolForOverride).length != 0) {\n            return symbolForOverride;\n        }\n        return super.symbol();\n    }\n\n    /// @notice ERC20 compatible decimals value. Should be the same as underlying\n    function decimals() public view override returns (uint8) {\n        return ERC20Upgradeable(_underlying()).decimals();\n    }\n\n    /// @dev Returns vault controller\n    function _vaultController() internal view returns (IVaultController) {\n        return IVaultController(IController(_controller()).vaultController());\n    }\n\n    // ************ GOVERNANCE ACTIONS ******************\n\n    /// @notice Override vault name\n    function overrideName(string calldata value) external {\n        require(_isGovernance(msg.sender));\n        _nameOverrides[NAME_OVERRIDE_ID] = value;\n    }\n\n    /// @notice Override vault name\n    function overrideSymbol(string calldata value) external {\n        require(_isGovernance(msg.sender));\n        _nameOverrides[SYMBOL_OVERRIDE_ID] = value;\n    }\n\n    /// @notice Change permission for decreasing ppfs during hard work process\n    /// @param _value true - allowed, false - disallowed\n    function changePpfsDecreaseAllowed(bool _value) external override {\n        _onlyVaultController(msg.sender);\n        _setPpfsDecreaseAllowed(_value);\n    }\n\n    /// @notice Set lock period for funds. Can be called only once\n    /// @param _value Timestamp value\n    function setLockPeriod(uint256 _value) external override {\n        require(\n            _isController(msg.sender) || _isGovernance(msg.sender),\n            FORBIDDEN_MSG\n        );\n        require(_lockAllowed());\n        require(lockPeriod() == 0);\n        _setLockPeriod(_value);\n    }\n\n    /// @notice Set lock initial penalty nominator. Can be called only once\n    /// @param _value Penalty denominator, should be in range 0 - (LOCK_PENALTY_DENOMINATOR / 2)\n    function setLockPenalty(uint256 _value) external override {\n        require(\n            _isController(msg.sender) || _isGovernance(msg.sender),\n            FORBIDDEN_MSG\n        );\n        require(_value <= (LOCK_PENALTY_DENOMINATOR / 2));\n        require(_lockAllowed());\n        require(lockPenalty() == 0);\n        _setLockPenalty(_value);\n    }\n\n    /// @notice Set numerator for toInvest ratio in range 0 - 1000\n    function setToInvest(uint256 _value) external override {\n        _onlyVaultController(msg.sender);\n        require(_value <= TO_INVEST_DENOMINATOR);\n        _setToInvest(_value);\n    }\n\n    // we should be able to disable lock functionality for not initialized contract\n    function disableLock() external override {\n        _onlyVaultController(msg.sender);\n        require(_lockAllowed());\n        // should be not initialized\n        // initialized lock forbidden to change\n        require(lockPenalty() == 0);\n        require(lockPeriod() == 0);\n        _disableLock();\n    }\n\n    /// @notice Change the active state marker\n    /// @param _active Status true - active, false - deactivated\n    function changeActivityStatus(bool _active) external override {\n        _onlyVaultController(msg.sender);\n        _setActive(_active);\n    }\n\n    /// @notice Change the protection mode status.\n    ///          Protection mode means claim rewards on withdraw and 0% initial reward boost\n    /// @param _active Status true - active, false - deactivated\n    function changeProtectionMode(bool _active) external override {\n        require(_isGovernance(msg.sender), FORBIDDEN_MSG);\n        _setProtectionMode(_active);\n    }\n\n    /// @notice If true we will call doHardWork for each invest action\n    /// @param _active Status true - active, false - deactivated\n    function changeDoHardWorkOnInvest(bool _active) external {\n        require(_isGovernance(msg.sender), FORBIDDEN_MSG);\n        _setDoHardWorkOnInvest(_active);\n    }\n\n    /// @notice If true we will call invest for each deposit\n    /// @param _active Status true - active, false - deactivated\n    function changeAlwaysInvest(bool _active) external {\n        require(_isGovernance(msg.sender), FORBIDDEN_MSG);\n        _setAlwaysInvest(_active);\n    }\n\n    /// @notice Earn some money for honest work\n    function doHardWork() external override {\n        require(\n            _isController(msg.sender) || _isGovernance(msg.sender),\n            FORBIDDEN_MSG\n        );\n        _invest();\n        // otherwise we already do\n        if (!_doHardWorkOnInvest()) {\n            _doHardWork();\n        }\n    }\n\n    function _doHardWork() internal {\n        uint256 sharePriceBeforeHardWork = _getPricePerFullShare();\n        IStrategy(_strategy()).doHardWork();\n        require(\n            ppfsDecreaseAllowed() ||\n                sharePriceBeforeHardWork <= _getPricePerFullShare(),\n            \"SV: PPFS decreased\"\n        );\n    }\n\n    /// @notice Add a reward token to the internal array\n    /// @param rt Reward token address\n    function addRewardToken(address rt) external override {\n        _onlyVaultController(msg.sender);\n        require(_getRewardTokenIndex(rt) == type(uint256).max);\n        require(rt != _underlying());\n        _rewardTokens.push(rt);\n        emit AddedRewardToken(rt);\n    }\n\n    /// @notice Remove reward token. Last token removal is not allowed\n    /// @param rt Reward token address\n    function removeRewardToken(address rt) external override {\n        _onlyVaultController(msg.sender);\n        uint256 i = _getRewardTokenIndex(rt);\n        require(i != type(uint256).max);\n        require(periodFinishForToken[_rewardTokens[i]] < block.timestamp);\n        require(_rewardTokens.length > 1);\n        uint256 lastIndex = _rewardTokens.length - 1;\n        // swap\n        _rewardTokens[i] = _rewardTokens[lastIndex];\n        // delete last element\n        _rewardTokens.pop();\n        emit RemovedRewardToken(rt);\n    }\n\n    /// @notice Withdraw all from strategy to the vault and invest again\n    function rebalance() external override {\n        _onlyVaultController(msg.sender);\n        IStrategy(_strategy()).withdrawAllToVault();\n        _invest();\n    }\n\n    /// @notice Withdraw all from strategy to the vault\n    function withdrawAllToVault() external {\n        require(\n            address(_controller()) == msg.sender ||\n                IController(_controller()).governance() == msg.sender,\n            FORBIDDEN_MSG\n        );\n        IStrategy(_strategy()).withdrawAllToVault();\n    }\n\n    //****************** USER ACTIONS ********************\n\n    /// @notice Allows for depositing the underlying asset in exchange for shares.\n    ///         Approval is assumed.\n    function deposit(uint256 amount) external override {\n        _isActive();\n        _onlyAllowedUsers(msg.sender);\n\n        _deposit(amount, msg.sender, msg.sender);\n        if (_alwaysInvest()) {\n            _invest();\n        }\n    }\n\n    /// @notice Allows for depositing the underlying asset in exchange for shares.\n    ///         Approval is assumed. Immediately invests the asset to the strategy\n    function depositAndInvest(uint256 amount) external override {\n        _isActive();\n        _onlyAllowedUsers(msg.sender);\n\n        _deposit(amount, msg.sender, msg.sender);\n        _invest();\n    }\n\n    /// @notice Allows for depositing the underlying asset in exchange for shares assigned to the holder.\n    ///         This facilitates depositing for someone else\n    function depositFor(uint256 amount, address holder) external override {\n        _isActive();\n        _onlyAllowedUsers(msg.sender);\n\n        _deposit(amount, msg.sender, holder);\n        if (_alwaysInvest()) {\n            _invest();\n        }\n    }\n\n    /// @notice Withdraw shares partially without touching rewards\n    function withdraw(uint256 numberOfShares) external override {\n        _onlyAllowedUsers(msg.sender);\n\n        // assume that allowed users is trusted contracts with internal specific logic\n        // for compatability we should not claim rewards on withdraw for them\n        if (\n            _protectionMode() &&\n            !IController(_controller()).isAllowedUser(msg.sender)\n        ) {\n            _getAllRewards();\n        }\n\n        _withdraw(numberOfShares);\n    }\n\n    /// @notice Withdraw all and claim rewards\n    function exit() external override {\n        _onlyAllowedUsers(msg.sender);\n        // for locked functionality need to claim rewards firstly\n        // otherwise token transfer will refresh the lock period\n        // also it will withdraw claimed tokens too\n        _getAllRewards();\n        _withdraw(balanceOf(msg.sender));\n    }\n\n    /// @notice Update and Claim all rewards\n    function getAllRewards() external override {\n        _onlyAllowedUsers(msg.sender);\n        _getAllRewards();\n    }\n\n    function _getAllRewards() internal {\n        _updateRewards(msg.sender);\n        for (uint256 i = 0; i < _rewardTokens.length; i++) {\n            _payReward(_rewardTokens[i]);\n        }\n    }\n\n    /// @notice Update and Claim rewards for specific token\n    function getReward(address rt) external override {\n        _onlyAllowedUsers(msg.sender);\n        _updateReward(msg.sender, rt);\n        _payReward(rt);\n    }\n\n    /// @dev Update user specific variables\n    ///      Store statistical information to Bookkeeper\n    function _beforeTokenTransfer(\n        address from,\n        address to,\n        uint256 amount\n    ) internal override {\n        _updateRewards(from);\n        _updateRewards(to);\n\n        // mint - assuming it is deposit action\n        if (from == address(0)) {\n            // new deposit\n            if (_underlyingBalanceWithInvestmentForHolder(to) == 0) {\n                userBoostTs[to] = block.timestamp;\n            }\n\n            // start lock only for new deposits\n            if (userLockTs[to] == 0 && _lockAllowed()) {\n                userLockTs[to] = block.timestamp;\n            }\n\n            // store current timestamp\n            userLastDepositTs[to] = block.timestamp;\n        } else if (to == address(0)) {\n            // burn - assuming it is withdraw action\n            userLastWithdrawTs[from] = block.timestamp;\n        } else {\n            // regular transfer\n\n            // we can't normally refresh lock timestamp for locked assets when it transfers to another account\n            // need to allow transfers for reward notification process and claim rewards\n            require(\n                !_lockAllowed() ||\n                    to == address(this) ||\n                    from == address(this) ||\n                    from == _controller(),\n                FORBIDDEN_MSG\n            );\n\n            // if recipient didn't have deposit - start boost time\n            if (_underlyingBalanceWithInvestmentForHolder(to) == 0) {\n                userBoostTs[to] = block.timestamp;\n            }\n\n            // update only for new deposit for avoiding miscellaneous sending for reset the value\n            if (userLastDepositTs[to] == 0) {\n                userLastDepositTs[to] = block.timestamp;\n            }\n\n            // reset timer if token transferred\n            userLastWithdrawTs[from] = block.timestamp;\n        }\n\n        // register ownership changing\n        // only statistic, no funds affected\n        try\n            IBookkeeper(IController(_controller()).bookkeeper())\n                .registerVaultTransfer(from, to, amount)\n        {} catch {}\n        super._beforeTokenTransfer(from, to, amount);\n    }\n\n    //**************** UNDERLYING MANAGEMENT FUNCTIONALITY ***********************\n\n    /// @notice Return underlying precision units\n    function underlyingUnit() external view override returns (uint256) {\n        return _underlyingUnit();\n    }\n\n    function _underlyingUnit() internal view returns (uint256) {\n        return 10**uint256(ERC20Upgradeable(address(_underlying())).decimals());\n    }\n\n    /// @notice Returns the cash balance across all users in this contract.\n    function underlyingBalanceInVault()\n        external\n        view\n        override\n        returns (uint256)\n    {\n        return _underlyingBalanceInVault();\n    }\n\n    function _underlyingBalanceInVault() internal view returns (uint256) {\n        return IERC20(_underlying()).balanceOf(address(this));\n    }\n\n    /// @notice Returns the current underlying (e.g., DAI's) balance together with\n    ///         the invested amount (if DAI is invested elsewhere by the strategy).\n    function underlyingBalanceWithInvestment()\n        external\n        view\n        override\n        returns (uint256)\n    {\n        return _underlyingBalanceWithInvestment();\n    }\n\n    function _underlyingBalanceWithInvestment()\n        internal\n        view\n        returns (uint256)\n    {\n        return\n            VaultLibrary.underlyingBalanceWithInvestment(\n                _strategy(),\n                IERC20(_underlying()).balanceOf(address(this))\n            );\n    }\n\n    /// @notice Get the user's share (in underlying)\n    ///         underlyingBalanceWithInvestment() * balanceOf(holder) / totalSupply()\n    function underlyingBalanceWithInvestmentForHolder(address holder)\n        external\n        view\n        override\n        returns (uint256)\n    {\n        return _underlyingBalanceWithInvestmentForHolder(holder);\n    }\n\n    function _underlyingBalanceWithInvestmentForHolder(address holder)\n        internal\n        view\n        returns (uint256)\n    {\n        if (totalSupply() == 0) {\n            return 0;\n        }\n        return\n            (_underlyingBalanceWithInvestment() * balanceOf(holder)) /\n            totalSupply();\n    }\n\n    /// @notice Price per full share (PPFS)\n    ///         Vaults with 100% buybacks have a value of 1 constantly\n    ///         (underlyingUnit() * underlyingBalanceWithInvestment()) / totalSupply()\n    function getPricePerFullShare() external view override returns (uint256) {\n        return _getPricePerFullShare();\n    }\n\n    function _getPricePerFullShare() internal view returns (uint256) {\n        return\n            totalSupply() == 0\n                ? _underlyingUnit()\n                : (_underlyingUnit() * _underlyingBalanceWithInvestment()) /\n                    totalSupply();\n    }\n\n    /// @notice Return amount of the underlying asset ready to invest to the strategy\n    function availableToInvestOut() external view override returns (uint256) {\n        return _availableToInvestOut();\n    }\n\n    function _availableToInvestOut() internal view returns (uint256) {\n        return\n            VaultLibrary.availableToInvestOut(\n                _strategy(),\n                _toInvest(),\n                _underlyingBalanceInVault()\n            );\n    }\n\n    /// @notice Burn shares, withdraw underlying from strategy\n    ///         and send back to the user the underlying asset\n    function _withdraw(uint256 numberOfShares) internal {\n        require(!_reentrantLock(), \"SV: Reentrant call\");\n        _setReentrantLock(true);\n        _updateRewards(msg.sender);\n        require(totalSupply() > 0, \"SV: No shares for withdraw\");\n        require(numberOfShares > 0, \"SV: Zero amount for withdraw\");\n\n        // store totalSupply before shares burn\n        uint256 _totalSupply = totalSupply();\n\n        // this logic not eligible for normal vaults\n        if (_lockAllowed()) {\n            numberOfShares = _processLockedAmount(numberOfShares);\n        }\n\n        // only statistic, no funds affected\n        try\n            IBookkeeper(IController(_controller()).bookkeeper())\n                .registerUserAction(msg.sender, numberOfShares, false)\n        {} catch {}\n\n        uint256 underlyingAmountToWithdraw = VaultLibrary\n            .processWithdrawFromStrategy(\n                numberOfShares,\n                _underlying(),\n                _totalSupply,\n                _toInvest(),\n                _strategy()\n            );\n\n        // need to burn shares after strategy withdraw for properly PPFS calculation\n        _burn(msg.sender, numberOfShares);\n\n        IERC20(_underlying()).safeTransfer(\n            msg.sender,\n            underlyingAmountToWithdraw\n        );\n\n        _setReentrantLock(false);\n        // update the withdrawal amount for the holder\n        emit Withdraw(msg.sender, underlyingAmountToWithdraw);\n    }\n\n    /// @dev Locking logic will add a part of locked shares as rewards for this vault\n    ///      Calculate locked amount and distribute locked shares as reward to the current vault\n    /// @return Number of shares available to withdraw\n    function _processLockedAmount(uint256 numberOfShares)\n        internal\n        returns (uint256)\n    {\n        (\n            uint256 numberOfSharesAdjusted,\n            uint256 lockedSharesToReward\n        ) = VaultLibrary.calculateLockedAmount(\n                numberOfShares,\n                userLockTs,\n                lockPeriod(),\n                lockPenalty(),\n                balanceOf(msg.sender)\n            );\n\n        if (lockedSharesToReward != 0) {\n            // move shares to current contract for using as rewards\n            _transfer(msg.sender, address(this), lockedSharesToReward);\n            // vault should have itself as reward token for recirculation process\n            _notifyRewardWithoutPeriodChange(\n                lockedSharesToReward,\n                address(this)\n            );\n        }\n\n        return numberOfSharesAdjusted;\n    }\n\n    /// @notice Mint shares and transfer underlying from user to the vault\n    ///         New shares = (invested amount * total supply) / underlyingBalanceWithInvestment()\n    function _deposit(\n        uint256 amount,\n        address sender,\n        address beneficiary\n    ) internal {\n        require(!_reentrantLock(), \"SV: Reentrant call\");\n        _setReentrantLock(true);\n        _updateRewards(beneficiary);\n        require(amount > 0, \"SV: Zero amount\");\n        require(beneficiary != address(0), \"SV: Zero beneficiary for deposit\");\n\n        uint256 toMint = totalSupply() == 0\n            ? amount\n            : (amount * totalSupply()) / _underlyingBalanceWithInvestment();\n        // no revert for this case for keep compatability\n        if (toMint != 0) {\n            toMint =\n                (toMint * (DEPOSIT_FEE_DENOMINATOR - _depositFeeNumerator())) /\n                DEPOSIT_FEE_DENOMINATOR;\n            _mint(beneficiary, toMint);\n\n            IERC20(_underlying()).safeTransferFrom(\n                sender,\n                address(this),\n                amount\n            );\n\n            // only statistic, no funds affected\n            try\n                IBookkeeper(IController(_controller()).bookkeeper())\n                    .registerUserAction(beneficiary, toMint, true)\n            {} catch {}\n            emit Deposit(beneficiary, amount);\n        }\n        _setReentrantLock(false);\n    }\n\n    /// @notice Transfer underlying to the strategy\n    function _invest() internal {\n        require(_strategy() != address(0));\n        // avoid recursive hardworks\n        if (_doHardWorkOnInvest() && msg.sender != _strategy()) {\n            _doHardWork();\n        }\n        uint256 availableAmount = _availableToInvestOut();\n        if (availableAmount > 0) {\n            IERC20(_underlying()).safeTransfer(\n                address(_strategy()),\n                availableAmount\n            );\n            IStrategy(_strategy()).investAllUnderlying();\n            emit Invest(availableAmount);\n        }\n    }\n\n    //**************** REWARDS FUNCTIONALITY ***********************\n\n    /// @dev Refresh reward numbers\n    function _updateReward(address account, address rt) internal {\n        rewardPerTokenStoredForToken[rt] = _rewardPerToken(rt);\n        lastUpdateTimeForToken[rt] = _lastTimeRewardApplicable(rt);\n        if (account != address(0) && account != address(this)) {\n            rewardsForToken[rt][account] = _earned(rt, account);\n            userRewardPerTokenPaidForToken[rt][\n                account\n            ] = rewardPerTokenStoredForToken[rt];\n        }\n    }\n\n    /// @dev Use it for any underlying movements\n    function _updateRewards(address account) private {\n        for (uint256 i = 0; i < _rewardTokens.length; i++) {\n            _updateReward(account, _rewardTokens[i]);\n        }\n    }\n\n    /// @notice Return earned rewards for specific token and account (with 100% boost)\n    ///         Accurate value returns only after updateRewards call\n    ///         ((balanceOf(account)\n    ///           * (rewardPerToken - userRewardPerTokenPaidForToken)) / 10**18) + rewardsForToken\n    function earned(address rt, address account)\n        external\n        view\n        override\n        returns (uint256)\n    {\n        return _earned(rt, account);\n    }\n\n    function _earned(address rt, address account)\n        internal\n        view\n        returns (uint256)\n    {\n        return\n            (balanceOf(account) *\n                (_rewardPerToken(rt) -\n                    userRewardPerTokenPaidForToken[rt][account])) /\n            1e18 +\n            rewardsForToken[rt][account];\n    }\n\n    /// @notice Return amount ready to claim, calculated with actual boost\n    ///         Accurate value returns only after updateRewards call\n    function earnedWithBoost(address rt, address account)\n        external\n        view\n        override\n        returns (uint256)\n    {\n        return\n            VaultLibrary.earnedWithBoost(\n                _earned(rt, account),\n                userBoostTs[account],\n                _controller(),\n                _protectionMode()\n            );\n    }\n\n    /// @notice Return reward per token ratio by reward token address\n    ///                rewardPerTokenStoredForToken + (\n    ///                (lastTimeRewardApplicable - lastUpdateTimeForToken)\n    ///                 * rewardRateForToken * 10**18 / totalSupply)\n    function rewardPerToken(address rt)\n        external\n        view\n        override\n        returns (uint256)\n    {\n        return _rewardPerToken(rt);\n    }\n\n    function _rewardPerToken(address rt) internal view returns (uint256) {\n        uint256 totalSupplyWithoutItself = totalSupply() -\n            balanceOf(address(this));\n        if (totalSupplyWithoutItself == 0) {\n            return rewardPerTokenStoredForToken[rt];\n        }\n        return\n            rewardPerTokenStoredForToken[rt] +\n            (((_lastTimeRewardApplicable(rt) - lastUpdateTimeForToken[rt]) *\n                rewardRateForToken[rt] *\n                1e18) / totalSupplyWithoutItself);\n    }\n\n    /// @notice Return periodFinishForToken or block.timestamp by reward token address\n    function lastTimeRewardApplicable(address rt)\n        external\n        view\n        override\n        returns (uint256)\n    {\n        return _lastTimeRewardApplicable(rt);\n    }\n\n    function _lastTimeRewardApplicable(address rt)\n        internal\n        view\n        returns (uint256)\n    {\n        return Math.min(block.timestamp, periodFinishForToken[rt]);\n    }\n\n    /// @notice Return reward token array\n    function rewardTokens() external view override returns (address[] memory) {\n        return _rewardTokens;\n    }\n\n    /// @notice Return reward token array length\n    function rewardTokensLength() external view override returns (uint256) {\n        return _rewardTokens.length;\n    }\n\n    /// @notice Return reward token index\n    ///         If the return value is MAX_UINT256, it means that\n    ///         the specified reward token is not in the list\n    function getRewardTokenIndex(address rt)\n        external\n        view\n        override\n        returns (uint256)\n    {\n        return _getRewardTokenIndex(rt);\n    }\n\n    function _getRewardTokenIndex(address rt) internal view returns (uint256) {\n        for (uint256 i = 0; i < _rewardTokens.length; i++) {\n            if (_rewardTokens[i] == rt) return i;\n        }\n        return type(uint256).max;\n    }\n\n    /// @notice Update rewardRateForToken\n    ///         If period ended: reward / duration\n    ///         else add leftover to the reward amount and refresh the period\n    ///         (reward + ((periodFinishForToken - block.timestamp) * rewardRateForToken)) / duration\n    function notifyTargetRewardAmount(address _rewardToken, uint256 amount)\n        external\n        override\n    {\n        require(\n            IController(_controller()).isRewardDistributor(msg.sender),\n            FORBIDDEN_MSG\n        );\n        _updateRewards(address(0));\n        // register notified amount for statistical purposes\n        IBookkeeper(IController(_controller()).bookkeeper())\n            .registerRewardDistribution(address(this), _rewardToken, amount);\n\n        // overflow fix according to https://sips.synthetix.io/sips/sip-77\n        require(amount < type(uint256).max / 1e18, \"SV: Amount overflow\");\n        uint256 i = _getRewardTokenIndex(_rewardToken);\n        require(i != type(uint256).max, \"SV: RT not found\");\n\n        IERC20(_rewardToken).safeTransferFrom(\n            msg.sender,\n            address(this),\n            amount\n        );\n\n        if (block.timestamp >= periodFinishForToken[_rewardToken]) {\n            rewardRateForToken[_rewardToken] = amount / duration();\n        } else {\n            uint256 remaining = periodFinishForToken[_rewardToken] -\n                block.timestamp;\n            uint256 leftover = remaining * rewardRateForToken[_rewardToken];\n            rewardRateForToken[_rewardToken] = (amount + leftover) / duration();\n        }\n        lastUpdateTimeForToken[_rewardToken] = block.timestamp;\n        periodFinishForToken[_rewardToken] = block.timestamp + duration();\n\n        // Ensure the provided reward amount is not more than the balance in the contract.\n        // This keeps the reward rate in the right range, preventing overflows due to\n        // very high values of rewardRate in the earned and rewardsPerToken functions;\n        // Reward + leftover must be less than 2^256 / 10^18 to avoid overflow.\n        uint256 balance = IERC20(_rewardToken).balanceOf(address(this));\n        require(\n            rewardRateForToken[_rewardToken] <= balance / duration(),\n            \"SV: Provided reward too high\"\n        );\n        emit RewardAdded(_rewardToken, amount);\n    }\n\n    /// @dev Assume approve\n    ///      Add reward amount without changing reward duration\n    function notifyRewardWithoutPeriodChange(\n        address _rewardToken,\n        uint256 _amount\n    ) external override {\n        require(\n            IController(_controller()).isRewardDistributor(msg.sender),\n            FORBIDDEN_MSG\n        );\n        IERC20(_rewardToken).safeTransferFrom(\n            msg.sender,\n            address(this),\n            _amount\n        );\n        _notifyRewardWithoutPeriodChange(_amount, _rewardToken);\n    }\n\n    /// @notice Transfer earned rewards to caller\n    function _payReward(address rt) internal {\n        (uint256 renotifiedAmount, uint256 paidReward) = VaultLibrary\n            .processPayReward(\n                rt,\n                _earned(rt, msg.sender),\n                userBoostTs,\n                _controller(),\n                _protectionMode(),\n                rewardsForToken\n            );\n        if (renotifiedAmount != 0) {\n            _notifyRewardWithoutPeriodChange(renotifiedAmount, rt);\n        }\n        if (paidReward != 0) {\n            emit RewardPaid(msg.sender, rt, renotifiedAmount);\n        }\n    }\n\n    /// @dev Add reward amount without changing reward duration\n    function _notifyRewardWithoutPeriodChange(\n        uint256 _amount,\n        address _rewardToken\n    ) internal {\n        _updateRewards(address(0));\n        require(\n            _getRewardTokenIndex(_rewardToken) != type(uint256).max,\n            \"SV: RT not found\"\n        );\n        if (_amount > 1 && _amount < type(uint256).max / 1e18) {\n            rewardPerTokenStoredForToken[_rewardToken] = _rewardPerToken(\n                _rewardToken\n            );\n            lastUpdateTimeForToken[_rewardToken] = _lastTimeRewardApplicable(\n                _rewardToken\n            );\n            if (block.timestamp >= periodFinishForToken[_rewardToken]) {\n                // if vesting ended transfer the change to the controller\n                // otherwise we will have possible infinity rewards duration\n                IERC20(_rewardToken).safeTransfer(_controller(), _amount);\n                emit RewardSentToController(_rewardToken, _amount);\n            } else {\n                uint256 remaining = periodFinishForToken[_rewardToken] -\n                    block.timestamp;\n                uint256 leftover = remaining * rewardRateForToken[_rewardToken];\n                rewardRateForToken[_rewardToken] =\n                    (_amount + leftover) /\n                    remaining;\n                emit RewardRecirculated(_rewardToken, _amount);\n            }\n        }\n    }\n\n    /// @notice Disable strategy and move rewards to controller\n    function stop() external override {\n        _onlyVaultController(msg.sender);\n        IStrategy(_strategy()).withdrawAllToVault();\n        _setActive(false);\n\n        for (uint256 i = 0; i < _rewardTokens.length; i++) {\n            address rt = _rewardTokens[i];\n            periodFinishForToken[rt] = block.timestamp;\n            rewardRateForToken[rt] = 0;\n            uint256 amount = IERC20(rt).balanceOf(address(this));\n            if (amount != 0) {\n                IERC20(rt).safeTransfer(_controller(), amount);\n            }\n            emit RewardMovedToController(rt, amount);\n        }\n    }\n\n    //**************** STRATEGY UPDATE FUNCTIONALITY ***********************\n\n    /// @notice Check the strategy time lock, withdraw all to the vault and change the strategy\n    ///         Should be called via controller\n    function setStrategy(address newStrategy) external override {\n        // the main functionality moved to library for reduce contract size\n        VaultLibrary.changeStrategy(\n            _controller(),\n            _underlying(),\n            newStrategy,\n            _strategy()\n        );\n        emit StrategyChanged(newStrategy, _strategy());\n        _setStrategy(newStrategy);\n    }\n\n    function sync() external pure {\n        // requires for compatability with sphere contract\n        //noop\n    }\n}\n",
  "sourcePath": "/Users/cipher/Documents/work/test_tetu/contracts/SmartVault.sol",
  "compiler": {
    "name": "solc",
    "version": "0.8.13+commit.abaa5c0e.Emscripten.clang"
  },
  "schemaVersion": "3.4.4",
  "updatedAt": "2022-06-16T18:41:47.673Z",
  "networkType": "ethereum",
  "devdoc": {
    "author": "belbix",
    "details": "Use with TetuProxy",
    "kind": "dev",
    "methods": {
      "addRewardToken(address)": {
        "params": {
          "rt": "Reward token address"
        }
      },
      "allowance(address,address)": {
        "details": "See {IERC20-allowance}."
      },
      "alwaysInvest()": {
        "details": "Returns doHardWorkOnInvest mode status"
      },
      "approve(address,uint256)": {
        "details": "See {IERC20-approve}. Requirements: - `spender` cannot be the zero address."
      },
      "balanceOf(address)": {
        "details": "See {IERC20-balanceOf}."
      },
      "changeActivityStatus(bool)": {
        "params": {
          "_active": "Status true - active, false - deactivated"
        }
      },
      "changeAlwaysInvest(bool)": {
        "params": {
          "_active": "Status true - active, false - deactivated"
        }
      },
      "changeDoHardWorkOnInvest(bool)": {
        "params": {
          "_active": "Status true - active, false - deactivated"
        }
      },
      "changePpfsDecreaseAllowed(bool)": {
        "params": {
          "_value": "true - allowed, false - disallowed"
        }
      },
      "changeProtectionMode(bool)": {
        "params": {
          "_active": "Status true - active, false - deactivated"
        }
      },
      "created()": {
        "returns": {
          "ts": "Creation timestamp"
        }
      },
      "createdBlock()": {
        "returns": {
          "ts": "Creation block number"
        }
      },
      "decreaseAllowance(address,uint256)": {
        "details": "Atomically decreases the allowance granted to `spender` by the caller. This is an alternative to {approve} that can be used as a mitigation for problems described in {IERC20-approve}. Emits an {Approval} event indicating the updated allowance. Requirements: - `spender` cannot be the zero address. - `spender` must have allowance for the caller of at least `subtractedValue`."
      },
      "doHardWorkOnInvest()": {
        "details": "Returns doHardWorkOnInvest mode status"
      },
      "increaseAllowance(address,uint256)": {
        "details": "Atomically increases the allowance granted to `spender` by the caller. This is an alternative to {approve} that can be used as a mitigation for problems described in {IERC20-approve}. Emits an {Approval} event indicating the updated allowance. Requirements: - `spender` cannot be the zero address."
      },
      "initializeControllable(address)": {
        "details": "Use it only once after first logic setup",
        "params": {
          "__controller": "Controller address"
        }
      },
      "initializeSmartVault(string,string,address,address,uint256,bool,address,uint256)": {
        "details": "Use it only once after first logic setup",
        "params": {
          "__underlying": "Vault underlying address",
          "_controller": "Controller address",
          "_duration": "Rewards duration",
          "_lockAllowed": "Set true with lock mechanic requires",
          "_name": "ERC20 name",
          "_rewardToken": "Reward token address. Set zero address if not requires",
          "_symbol": "ERC20 symbol"
        }
      },
      "initializeVaultStorage(address,uint256,bool)": {
        "details": "Use it only once after first logic setup",
        "params": {
          "_durationValue": "Reward vesting period",
          "_underlyingToken": "Vault underlying token"
        }
      },
      "isController(address)": {
        "details": "Return true if given address is controller"
      },
      "name()": {
        "details": "Returns the name of the token."
      },
      "notifyRewardWithoutPeriodChange(address,uint256)": {
        "details": "Assume approve      Add reward amount without changing reward duration"
      },
      "removeRewardToken(address)": {
        "params": {
          "rt": "Reward token address"
        }
      },
      "setLockPenalty(uint256)": {
        "params": {
          "_value": "Penalty denominator, should be in range 0 - (LOCK_PENALTY_DENOMINATOR / 2)"
        }
      },
      "setLockPeriod(uint256)": {
        "params": {
          "_value": "Timestamp value"
        }
      },
      "symbol()": {
        "details": "Returns the symbol of the token, usually a shorter version of the name."
      },
      "totalSupply()": {
        "details": "See {IERC20-totalSupply}."
      },
      "transfer(address,uint256)": {
        "details": "See {IERC20-transfer}. Requirements: - `recipient` cannot be the zero address. - the caller must have a balance of at least `amount`."
      },
      "transferFrom(address,address,uint256)": {
        "details": "See {IERC20-transferFrom}. Emits an {Approval} event indicating the updated allowance. This is not required by the EIP. See the note at the beginning of {ERC20}. Requirements: - `sender` and `recipient` cannot be the zero address. - `sender` must have a balance of at least `amount`. - the caller must have allowance for ``sender``'s tokens of at least `amount`."
      }
    },
    "stateVariables": {
      "LOCK_PENALTY_DENOMINATOR": {
        "details": "Denominator for penalty numerator"
      },
      "VERSION": {
        "details": "Should be incremented when contract changed"
      },
      "_nameOverrides": {
        "details": "VaultStorage doesn't have a map for strings so we need to add it here"
      },
      "_rewardTokens": {
        "details": "A list of reward tokens that able to be distributed to this contract"
      },
      "lastUpdateTimeForToken": {
        "details": "Last rewards snapshot time. Updated on each share movements"
      },
      "periodFinishForToken": {
        "details": "Timestamp value when current period of rewards will be ended"
      },
      "rewardPerTokenStoredForToken": {
        "details": "Rewards snapshot calculated from rewardPerToken(rt). Updated on each share movements"
      },
      "rewardRateForToken": {
        "details": "Reward rate in normal circumstances is distributed rewards divided on duration"
      },
      "rewardsForToken": {
        "details": "User personal earned reward snapshot. Updated on each share movements"
      },
      "userBoostTs": {
        "details": "In normal circumstances hold last claim timestamp for users"
      },
      "userLastDepositTs": {
        "details": "Only for statistical purposes, no guarantee to be accurate      Last timestamp value when user deposit. Doesn't update on transfers"
      },
      "userLastWithdrawTs": {
        "details": "Only for statistical purposes, no guarantee to be accurate      Last timestamp value when user withdraw. Resets on transfer"
      },
      "userLockTs": {
        "details": "In normal circumstances hold last withdraw timestamp for users"
      },
      "userRewardPerTokenPaidForToken": {
        "details": "User personal reward rate snapshot. Updated on each share movements"
      }
    },
    "title": "Smart Vault is a combination of implementations drawn from Synthetix pool        for their innovative reward vesting and Yearn vault for their share price model",
    "version": 1
  },
  "userdoc": {
    "events": {
      "UpdatedAddressSlot(string,address,address)": {
        "notice": "Address changed the variable with `name`"
      },
      "UpdatedBoolSlot(string,bool,bool)": {
        "notice": "Boolean value changed the variable with `name`"
      },
      "UpdatedUint256Slot(string,uint256,uint256)": {
        "notice": "Value changed the variable with `name`"
      }
    },
    "kind": "user",
    "methods": {
      "VERSION()": {
        "notice": "Version of the contract"
      },
      "active()": {
        "notice": "Vault status"
      },
      "addRewardToken(address)": {
        "notice": "Add a reward token to the internal array"
      },
      "availableToInvestOut()": {
        "notice": "Return amount of the underlying asset ready to invest to the strategy"
      },
      "changeActivityStatus(bool)": {
        "notice": "Change the active state marker"
      },
      "changeAlwaysInvest(bool)": {
        "notice": "If true we will call invest for each deposit"
      },
      "changeDoHardWorkOnInvest(bool)": {
        "notice": "If true we will call doHardWork for each invest action"
      },
      "changePpfsDecreaseAllowed(bool)": {
        "notice": "Change permission for decreasing ppfs during hard work process"
      },
      "changeProtectionMode(bool)": {
        "notice": "Change the protection mode status.          Protection mode means claim rewards on withdraw and 0% initial reward boost"
      },
      "controller()": {
        "notice": "Return controller address saved in the contract slot"
      },
      "created()": {
        "notice": "Return creation timestamp"
      },
      "createdBlock()": {
        "notice": "Return creation block number"
      },
      "decimals()": {
        "notice": "ERC20 compatible decimals value. Should be the same as underlying"
      },
      "deposit(uint256)": {
        "notice": "Allows for depositing the underlying asset in exchange for shares.         Approval is assumed."
      },
      "depositAndInvest(uint256)": {
        "notice": "Allows for depositing the underlying asset in exchange for shares.         Approval is assumed. Immediately invests the asset to the strategy"
      },
      "depositFor(uint256,address)": {
        "notice": "Allows for depositing the underlying asset in exchange for shares assigned to the holder.         This facilitates depositing for someone else"
      },
      "doHardWork()": {
        "notice": "Earn some money for honest work"
      },
      "duration()": {
        "notice": "Rewards vesting period"
      },
      "earned(address,address)": {
        "notice": "Return earned rewards for specific token and account (with 100% boost)         Accurate value returns only after updateRewards call         ((balanceOf(account)           * (rewardPerToken - userRewardPerTokenPaidForToken)) / 10**18) + rewardsForToken"
      },
      "earnedWithBoost(address,address)": {
        "notice": "Return amount ready to claim, calculated with actual boost         Accurate value returns only after updateRewards call"
      },
      "exit()": {
        "notice": "Withdraw all and claim rewards"
      },
      "getAllRewards()": {
        "notice": "Update and Claim all rewards"
      },
      "getPricePerFullShare()": {
        "notice": "Price per full share (PPFS)         Vaults with 100% buybacks have a value of 1 constantly         (underlyingUnit() * underlyingBalanceWithInvestment()) / totalSupply()"
      },
      "getReward(address)": {
        "notice": "Update and Claim rewards for specific token"
      },
      "getRewardTokenIndex(address)": {
        "notice": "Return reward token index         If the return value is MAX_UINT256, it means that         the specified reward token is not in the list"
      },
      "initializeControllable(address)": {
        "notice": "Initialize contract after setup it as proxy implementation         Save block.timestamp in the \"created\" variable"
      },
      "initializeSmartVault(string,string,address,address,uint256,bool,address,uint256)": {
        "notice": "Initialize contract after setup it as proxy implementation"
      },
      "initializeVaultStorage(address,uint256,bool)": {
        "notice": "Initialize contract after setup it as proxy implementation"
      },
      "isGovernance(address)": {
        "notice": "Return true if given address is setup as governance in Controller"
      },
      "lastTimeRewardApplicable(address)": {
        "notice": "Return periodFinishForToken or block.timestamp by reward token address"
      },
      "lockAllowed()": {
        "notice": "Lock functionality allowed for this contract or not"
      },
      "lockPenalty()": {
        "notice": "Base penalty if funds locked"
      },
      "lockPeriod()": {
        "notice": "Deposit lock period"
      },
      "notifyTargetRewardAmount(address,uint256)": {
        "notice": "Update rewardRateForToken         If period ended: reward / duration         else add leftover to the reward amount and refresh the period         (reward + ((periodFinishForToken - block.timestamp) * rewardRateForToken)) / duration"
      },
      "overrideName(string)": {
        "notice": "Override vault name"
      },
      "overrideSymbol(string)": {
        "notice": "Override vault name"
      },
      "ppfsDecreaseAllowed()": {
        "notice": "Vault status"
      },
      "protectionMode()": {
        "notice": "Protection mode means claim rewards on withdraw and 0% initial reward boost"
      },
      "rebalance()": {
        "notice": "Withdraw all from strategy to the vault and invest again"
      },
      "removeRewardToken(address)": {
        "notice": "Remove reward token. Last token removal is not allowed"
      },
      "rewardPerToken(address)": {
        "notice": "Return reward per token ratio by reward token address                rewardPerTokenStoredForToken + (                (lastTimeRewardApplicable - lastUpdateTimeForToken)                 * rewardRateForToken * 10**18 / totalSupply)"
      },
      "rewardTokens()": {
        "notice": "Return reward token array"
      },
      "rewardTokensLength()": {
        "notice": "Return reward token array length"
      },
      "setLockPenalty(uint256)": {
        "notice": "Set lock initial penalty nominator. Can be called only once"
      },
      "setLockPeriod(uint256)": {
        "notice": "Set lock period for funds. Can be called only once"
      },
      "setStrategy(address)": {
        "notice": "Check the strategy time lock, withdraw all to the vault and change the strategy         Should be called via controller"
      },
      "setToInvest(uint256)": {
        "notice": "Set numerator for toInvest ratio in range 0 - 1000"
      },
      "stop()": {
        "notice": "Disable strategy and move rewards to controller"
      },
      "strategy()": {
        "notice": "Current strategy that vault use for farming"
      },
      "underlying()": {
        "notice": "Vault underlying"
      },
      "underlyingBalanceInVault()": {
        "notice": "Returns the cash balance across all users in this contract."
      },
      "underlyingBalanceWithInvestment()": {
        "notice": "Returns the current underlying (e.g., DAI's) balance together with         the invested amount (if DAI is invested elsewhere by the strategy)."
      },
      "underlyingBalanceWithInvestmentForHolder(address)": {
        "notice": "Get the user's share (in underlying)         underlyingBalanceWithInvestment() * balanceOf(holder) / totalSupply()"
      },
      "underlyingUnit()": {
        "notice": "Return underlying precision units"
      },
      "withdraw(uint256)": {
        "notice": "Withdraw shares partially without touching rewards"
      },
      "withdrawAllToVault()": {
        "notice": "Withdraw all from strategy to the vault"
      }
    },
    "version": 1
  }
}