{
  "contractName": "VaultLibrary",
  "abi": [
    {
      "inputs": [
        {
          "internalType": "address",
          "name": "strategy",
          "type": "address"
        },
        {
          "internalType": "uint256",
          "name": "toInvest",
          "type": "uint256"
        },
        {
          "internalType": "uint256",
          "name": "underlyingBalanceInVault",
          "type": "uint256"
        }
      ],
      "name": "availableToInvestOut",
      "outputs": [
        {
          "internalType": "uint256",
          "name": "",
          "type": "uint256"
        }
      ],
      "stateMutability": "view",
      "type": "function",
      "constant": true
    },
    {
      "inputs": [
        {
          "internalType": "uint256",
          "name": "reward",
          "type": "uint256"
        },
        {
          "internalType": "uint256",
          "name": "boostStart",
          "type": "uint256"
        },
        {
          "internalType": "address",
          "name": "controller",
          "type": "address"
        },
        {
          "internalType": "bool",
          "name": "protectionMode",
          "type": "bool"
        }
      ],
      "name": "earnedWithBoost",
      "outputs": [
        {
          "internalType": "uint256",
          "name": "",
          "type": "uint256"
        }
      ],
      "stateMutability": "view",
      "type": "function",
      "constant": true
    }
  ],
  "bytecode": "0x61173d61003a600b82828239805160001a60731461002d57634e487b7160e01b600052600060045260246000fd5b30600052607381538281f3fe730000000000000000000000000000000000000000301460806040526004361061006c5760003560e01c806338fa99351461007157806365c45de7146100975780637ea05c71146100cc578063a5171853146100ec578063df3029411461010e578063ef61329a14610121575b600080fd5b61008461007f3660046113e7565b610141565b6040519081526020015b60405180910390f35b8180156100a357600080fd5b506100b76100b2366004611431565b6102fe565b6040805192835260208301919091520161008e565b8180156100d857600080fd5b506100b76100e7366004611498565b6106ce565b8180156100f857600080fd5b5061010c6101073660046114d3565b6107aa565b005b61008461011c366004611524565b610bdc565b81801561012d57600080fd5b5061008461013c366004611559565b610cbd565b6000831580159061015157504284105b156102f557600061016285426115c5565b90506000846001600160a01b0316635f36b0486040518163ffffffff1660e01b8152600401602060405180830381865afa1580156101a4573d6000803e3d6000fd5b505050506040513d601f19601f820116820180604052508101906101c891906115dc565b90506000816001600160a01b031663a25c23626040518163ffffffff1660e01b8152600401602060405180830381865afa15801561020a573d6000803e3d6000fd5b505050506040513d601f19601f8201168201806040525081019061022e91906115f9565b90506000826001600160a01b0316634b389e226040518163ffffffff1660e01b8152600401602060405180830381865afa158015610270573d6000803e3d6000fd5b505050506040513d601f19601f8201168201806040525081019061029491906115f9565b905085156102a0575060005b818410156102f057600060646102b6838c611612565b6102c09190611631565b905082856102ce838d6115c5565b6102d89190611612565b6102e29190611631565b6102ec9082611653565b9950505b505050505b50929392505050565b600085801580159061037857506040516370a0823160e01b815230600482015281906001600160a01b038a16906370a0823190602401602060405180830381865afa158015610351573d6000803e3d6000fd5b505050506040513d601f19601f8201168201806040525081019061037591906115f9565b10155b156106c35733600090815260208790526040902080544290915580158015906103a057504281105b8015610411575060405163eea9970360e01b81523360048201526001600160a01b0387169063eea9970390602401602060405180830381865afa1580156103eb573d6000803e3d6000fd5b505050506040513d601f19601f8201168201806040525081019061040f919061166b565b155b156105c557600061042282426115c5565b90506000876001600160a01b0316635f36b0486040518163ffffffff1660e01b8152600401602060405180830381865afa158015610464573d6000803e3d6000fd5b505050506040513d601f19601f8201168201806040525081019061048891906115dc565b90506000816001600160a01b031663a25c23626040518163ffffffff1660e01b8152600401602060405180830381865afa1580156104ca573d6000803e3d6000fd5b505050506040513d601f19601f820116820180604052508101906104ee91906115f9565b90506000826001600160a01b0316634b389e226040518163ffffffff1660e01b8152600401602060405180830381865afa158015610530573d6000803e3d6000fd5b505050506040513d601f19601f8201168201806040525081019061055491906115f9565b90508815610560575060005b818410156105c057600060646105768389611612565b6105809190611631565b905060008386610590848b6115c5565b61059a9190611612565b6105a49190611631565b6105ae9083611653565b90506105ba81896115c5565b98509650505b505050505b6001600160a01b0389166000818152602086815260408083203380855292528220919091556105f5919084610f68565b856001600160a01b03166347b03bba6040518163ffffffff1660e01b8152600401602060405180830381865afa158015610633573d6000803e3d6000fd5b505050506040513d601f19601f8201168201806040525081019061065791906115dc565b604051635f0b7bd960e01b81523360048201523060248201526001600160a01b038b81166044830152606482018590529190911690635f0b7bd990608401600060405180830381600087803b1580156106af57600080fd5b505af19250505080156106c0575060015b50505b965096945050505050565b336000908152602085905260408120548691908284036106fd5733600090815260208890526040812055610710565b3360009081526020889052604090204290555b801580159061071e57504281105b1561079f57600061072f82426115c5565b90508681101561079d5760006103e861074888826115c5565b6107529087611612565b61075c9190611631565b90506000888361076c84896115c5565b6107769190611612565b6107809190611631565b61078a9083611653565b905061079681876115c5565b9095509350505b505b509550959350505050565b6001600160a01b03841633146107fc5760405162461bcd60e51b815260206004820152601260248201527129ab1d102737ba1031b7b73a3937b63632b960711b60448201526064015b60405180910390fd5b6001600160a01b03821661084a5760405162461bcd60e51b815260206004820152601560248201527453563a205a65726f206e657720737472617465677960581b60448201526064016107f3565b826001600160a01b0316826001600160a01b0316636f307dc36040518163ffffffff1660e01b8152600401602060405180830381865afa158015610892573d6000803e3d6000fd5b505050506040513d601f19601f820116820180604052508101906108b691906115dc565b6001600160a01b03161461090c5760405162461bcd60e51b815260206004820152601d60248201527f53563a2057726f6e6720737472617465677920756e6465726c79696e6700000060448201526064016107f3565b306001600160a01b0316826001600160a01b031663fbfa77cf6040518163ffffffff1660e01b8152600401602060405180830381865afa158015610954573d6000803e3d6000fd5b505050506040513d601f19601f8201168201806040525081019061097891906115dc565b6001600160a01b0316146109c95760405162461bcd60e51b815260206004820152601860248201527714d58e8815dc9bdb99c81cdd1c985d1959de481d985d5b1d60421b60448201526064016107f3565b60405163b429afeb60e01b81526001600160a01b03858116600483015283169063b429afeb90602401602060405180830381865afa158015610a0f573d6000803e3d6000fd5b505050506040513d601f19601f82011682018060405250810190610a33919061166b565b610a7f5760405162461bcd60e51b815260206004820152601d60248201527f53563a2057726f6e6720737472617465677920636f6e74726f6c6c657200000060448201526064016107f3565b806001600160a01b0316826001600160a01b031603610ad85760405162461bcd60e51b815260206004820152601560248201527453563a205468652073616d6520737472617465677960581b60448201526064016107f3565b6001600160a01b03811615610b5057610afc6001600160a01b038416826000610fd0565b806001600160a01b031663bfd131f16040518163ffffffff1660e01b8152600401600060405180830381600087803b158015610b3757600080fd5b505af1158015610b4b573d6000803e3d6000fd5b505050505b610b656001600160a01b038416836000610fd0565b610b7b6001600160a01b03841683600019610fd0565b60405163223e547960e01b81526001600160a01b03838116600483015285169063223e547990602401600060405180830381600087803b158015610bbe57600080fd5b505af1158015610bd2573d6000803e3d6000fd5b5050505050505050565b60006001600160a01b038416610bf457506000610cb6565b60006103e884610c0487866110e5565b610c0e9190611612565b610c189190611631565b90506000856001600160a01b03166345d01e4a6040518163ffffffff1660e01b8152600401602060405180830381865afa158015610c5a573d6000803e3d6000fd5b505050506040513d601f19601f82011682018060405250810190610c7e91906115f9565b9050818110610c9257600092505050610cb6565b6000610c9e82846115c5565b905084811115610cae5784610cb0565b805b93505050505b9392505050565b6040516370a0823160e01b815230600482015260009081906001600160a01b038716906370a0823190602401602060405180830381865afa158015610d06573d6000803e3d6000fd5b505050506040513d601f19601f82011682018060405250810190610d2a91906115f9565b905060008588610d3a86856110e5565b610d449190611612565b610d4e9190611631565b905081811115610f5d57858803610db757836001600160a01b031663bfd131f16040518163ffffffff1660e01b8152600401600060405180830381600087803b158015610d9a57600080fd5b505af1158015610dae573d6000803e3d6000fd5b50505050610ec7565b6000846001600160a01b03166345d01e4a6040518163ffffffff1660e01b8152600401602060405180830381865afa158015610df7573d6000803e3d6000fd5b505050506040513d601f19601f82011682018060405250810190610e1b91906115f9565b90506000826103e8610e2d89826115c5565b610e378786611653565b610e419190611612565b610e4b9190611631565b610e559190611653565b9050610e618183611171565b90508015610ec4576040516319d1885d60e31b8152600481018290526001600160a01b0387169063ce8c42e890602401600060405180830381600087803b158015610eab57600080fd5b505af1158015610ebf573d6000803e3d6000fd5b505050505b50505b6040516370a0823160e01b81523060048201526001600160a01b038816906370a0823190602401602060405180830381865afa158015610f0b573d6000803e3d6000fd5b505050506040513d601f19601f82011682018060405250810190610f2f91906115f9565b9150610f5a8689610f4087866110e5565b610f4a9190611612565b610f549190611631565b83611171565b90505b979650505050505050565b6040516001600160a01b038316602482015260448101829052610fcb90849063a9059cbb60e01b906064015b60408051601f198184030181529190526020810180516001600160e01b03166001600160e01b031990931692909217909152611187565b505050565b80158061104a5750604051636eb1769f60e11b81523060048201526001600160a01b03838116602483015284169063dd62ed3e90604401602060405180830381865afa158015611024573d6000803e3d6000fd5b505050506040513d601f19601f8201168201806040525081019061104891906115f9565b155b6110b55760405162461bcd60e51b815260206004820152603660248201527f5361666545524332303a20617070726f76652066726f6d206e6f6e2d7a65726f60448201527520746f206e6f6e2d7a65726f20616c6c6f77616e636560501b60648201526084016107f3565b6040516001600160a01b038316602482015260448101829052610fcb90849063095ea7b360e01b90606401610f94565b60006001600160a01b0383166110fc57508061116b565b826001600160a01b03166345d01e4a6040518163ffffffff1660e01b8152600401602060405180830381865afa15801561113a573d6000803e3d6000fd5b505050506040513d601f19601f8201168201806040525081019061115e91906115f9565b6111689083611653565b90505b92915050565b60008183106111805781611168565b5090919050565b60006111dc826040518060400160405280602081526020017f5361666545524332303a206c6f772d6c6576656c2063616c6c206661696c6564815250856001600160a01b03166112599092919063ffffffff16565b805190915015610fcb57808060200190518101906111fa919061166b565b610fcb5760405162461bcd60e51b815260206004820152602a60248201527f5361666545524332303a204552433230206f7065726174696f6e20646964206e6044820152691bdd081cdd58d8d9595960b21b60648201526084016107f3565b60606112688484600085611270565b949350505050565b6060824710156112d15760405162461bcd60e51b815260206004820152602660248201527f416464726573733a20696e73756666696369656e742062616c616e636520666f6044820152651c8818d85b1b60d21b60648201526084016107f3565b843b61131f5760405162461bcd60e51b815260206004820152601d60248201527f416464726573733a2063616c6c20746f206e6f6e2d636f6e747261637400000060448201526064016107f3565b600080866001600160a01b0316858760405161133b91906116b8565b60006040518083038185875af1925050503d8060008114611378576040519150601f19603f3d011682016040523d82523d6000602084013e61137d565b606091505b5091509150610f5d82828660608315611397575081610cb6565b8251156113a75782518084602001fd5b8160405162461bcd60e51b81526004016107f391906116d4565b6001600160a01b03811681146113d657600080fd5b50565b80151581146113d657600080fd5b600080600080608085870312156113fd57600080fd5b84359350602085013592506040850135611416816113c1565b91506060850135611426816113d9565b939692955090935050565b60008060008060008060c0878903121561144a57600080fd5b8635611455816113c1565b955060208701359450604087013593506060870135611473816113c1565b92506080870135611483816113d9565b8092505060a087013590509295509295509295565b600080600080600060a086880312156114b057600080fd5b505083359560208501359550604085013594606081013594506080013592509050565b600080600080608085870312156114e957600080fd5b84356114f4816113c1565b93506020850135611504816113c1565b92506040850135611514816113c1565b91506060850135611426816113c1565b60008060006060848603121561153957600080fd5b8335611544816113c1565b95602085013595506040909401359392505050565b600080600080600060a0868803121561157157600080fd5b853594506020860135611583816113c1565b9350604086013592506060860135915060808601356115a1816113c1565b809150509295509295909350565b634e487b7160e01b600052601160045260246000fd5b6000828210156115d7576115d76115af565b500390565b6000602082840312156115ee57600080fd5b8151610cb6816113c1565b60006020828403121561160b57600080fd5b5051919050565b600081600019048311821515161561162c5761162c6115af565b500290565b60008261164e57634e487b7160e01b600052601260045260246000fd5b500490565b60008219821115611666576116666115af565b500190565b60006020828403121561167d57600080fd5b8151610cb6816113d9565b60005b838110156116a357818101518382015260200161168b565b838111156116b2576000848401525b50505050565b600082516116ca818460208701611688565b9190910192915050565b60208152600082518060208401526116f3816040850160208701611688565b601f01601f1916919091016040019291505056fea2646970667358221220156e684f9dd6b384f360bcae640bee02114d72957e17a9ca9e7731549d8096dd64736f6c634300080d0033",
  "immutableReferences": {},
  "source": "// SPDX-License-Identifier: ISC\n/**\n * By using this software, you understand, acknowledge and accept that Tetu\n * and/or the underlying software are provided as is and as available\n * basis and without warranties or representations of any kind either expressed\n * or implied. Any use of this open source software released under the ISC\n * Internet Systems Consortium license is done at your own risk to the fullest\n * extent permissible pursuant to applicable law any and all liability as well\n * as all warranties, including any fitness for a particular purpose with respect\n * to Tetu and/or the underlying software and the use thereof are disclaimed.\n */\n\npragma solidity ^0.8.0;\n\nimport \"./openzeppelin/IERC20.sol\";\nimport \"./openzeppelin/SafeERC20.sol\";\nimport \"./openzeppelin/Math.sol\";\nimport \"./interface/IStrategy.sol\";\nimport \"./interface/IControllable.sol\";\nimport \"./interface/IController.sol\";\nimport \"./interface/IVaultController.sol\";\nimport \"./interface/IBookkeeper.sol\";\n\n/// @title Library for SmartVault\n/// @author belbix\nlibrary VaultLibrary {\n    using SafeERC20 for IERC20;\n\n    // !!! CONSTANTS MUST BE THE SAME AS IN SMART VAULT !!!\n    uint256 private constant TO_INVEST_DENOMINATOR = 1000;\n    uint256 private constant LOCK_PENALTY_DENOMINATOR = 1000;\n\n    /// @dev Do necessary checks and prepare a strategy for installing\n    function changeStrategy(\n        address controller,\n        address underlying,\n        address newStrategy,\n        address oldStrategy\n    ) public {\n        require(controller == msg.sender, \"SV: Not controller\");\n        require(newStrategy != address(0), \"SV: Zero new strategy\");\n        require(\n            IStrategy(newStrategy).underlying() == address(underlying),\n            \"SV: Wrong strategy underlying\"\n        );\n        require(\n            IStrategy(newStrategy).vault() == address(this),\n            \"SV: Wrong strategy vault\"\n        );\n        require(\n            IControllable(newStrategy).isController(controller),\n            \"SV: Wrong strategy controller\"\n        );\n        require(newStrategy != oldStrategy, \"SV: The same strategy\");\n\n        if (oldStrategy != address(0)) {\n            // if the original strategy is defined\n            IERC20(underlying).safeApprove(address(oldStrategy), 0);\n            IStrategy(oldStrategy).withdrawAllToVault();\n        }\n        IERC20(underlying).safeApprove(newStrategy, 0);\n        IERC20(underlying).safeApprove(newStrategy, type(uint256).max);\n        IController(controller).addStrategy(newStrategy);\n    }\n\n    /// @notice Returns amount of the underlying asset ready to invest to the strategy\n    function availableToInvestOut(\n        address strategy,\n        uint256 toInvest,\n        uint256 underlyingBalanceInVault\n    ) public view returns (uint256) {\n        if (strategy == address(0)) {\n            return 0;\n        }\n        uint256 wantInvestInTotal = (underlyingBalanceWithInvestment(\n            strategy,\n            underlyingBalanceInVault\n        ) * toInvest) / TO_INVEST_DENOMINATOR;\n        uint256 alreadyInvested = IStrategy(strategy)\n            .investedUnderlyingBalance();\n        if (alreadyInvested >= wantInvestInTotal) {\n            return 0;\n        } else {\n            uint256 remainingToInvest = wantInvestInTotal - alreadyInvested;\n            return\n                remainingToInvest <= underlyingBalanceInVault\n                    ? remainingToInvest\n                    : underlyingBalanceInVault;\n        }\n    }\n\n    /// @dev It is a part of withdrawing process.\n    ///      Do necessary calculation for withdrawing from strategy and move funds to vault\n    function processWithdrawFromStrategy(\n        uint256 numberOfShares,\n        address underlying,\n        uint256 totalSupply,\n        uint256 toInvest,\n        address strategy\n    ) public returns (uint256) {\n        uint256 underlyingBalanceInVault = IERC20(underlying).balanceOf(\n            address(this)\n        );\n        uint256 underlyingAmountToWithdraw = (underlyingBalanceWithInvestment(\n            strategy,\n            underlyingBalanceInVault\n        ) * numberOfShares) / totalSupply;\n        if (underlyingAmountToWithdraw > underlyingBalanceInVault) {\n            // withdraw everything from the strategy to accurately check the share value\n            if (numberOfShares == totalSupply) {\n                IStrategy(strategy).withdrawAllToVault();\n            } else {\n                uint256 strategyBalance = IStrategy(strategy)\n                    .investedUnderlyingBalance();\n                // we should always have buffer amount inside the vault\n                uint256 missing = ((strategyBalance +\n                    underlyingBalanceInVault) *\n                    (TO_INVEST_DENOMINATOR - toInvest)) /\n                    TO_INVEST_DENOMINATOR +\n                    underlyingAmountToWithdraw;\n                missing = Math.min(missing, strategyBalance);\n                if (missing > 0) {\n                    IStrategy(strategy).withdrawToVault(missing);\n                }\n            }\n            underlyingBalanceInVault = IERC20(underlying).balanceOf(\n                address(this)\n            );\n            // recalculate to improve accuracy\n            underlyingAmountToWithdraw = Math.min(\n                (underlyingBalanceWithInvestment(\n                    strategy,\n                    underlyingBalanceInVault\n                ) * numberOfShares) / totalSupply,\n                underlyingBalanceInVault\n            );\n        }\n        return underlyingAmountToWithdraw;\n    }\n\n    /// @notice Returns the current underlying (e.g., DAI's) balance together with\n    ///         the invested amount (if DAI is invested elsewhere by the strategy).\n    function underlyingBalanceWithInvestment(\n        address strategy,\n        uint256 underlyingBalanceInVault\n    ) internal view returns (uint256) {\n        if (address(strategy) == address(0)) {\n            // initial state, when not set\n            return underlyingBalanceInVault;\n        }\n        return\n            underlyingBalanceInVault +\n            IStrategy(strategy).investedUnderlyingBalance();\n    }\n\n    /// @dev Locking logic will add a part of locked shares as rewards for this vault\n    ///      Calculate locked amount for using in the main logic\n    function calculateLockedAmount(\n        uint256 numberOfShares,\n        mapping(address => uint256) storage userLockTs,\n        uint256 lockPeriod,\n        uint256 lockPenalty,\n        uint256 userBalance\n    )\n        public\n        returns (uint256 numberOfSharesAdjusted, uint256 lockedSharesToReward)\n    {\n        numberOfSharesAdjusted = numberOfShares;\n        uint256 lockStart = userLockTs[msg.sender];\n        // refresh lock time\n        // if full withdraw set timer to 0\n        if (userBalance == numberOfSharesAdjusted) {\n            userLockTs[msg.sender] = 0;\n        } else {\n            userLockTs[msg.sender] = block.timestamp;\n        }\n        if (lockStart != 0 && lockStart < block.timestamp) {\n            uint256 currentLockDuration = block.timestamp - lockStart;\n            if (currentLockDuration < lockPeriod) {\n                uint256 sharesBase = (numberOfSharesAdjusted *\n                    (LOCK_PENALTY_DENOMINATOR - lockPenalty)) /\n                    LOCK_PENALTY_DENOMINATOR;\n                uint256 toWithdraw = sharesBase +\n                    (((numberOfSharesAdjusted - sharesBase) *\n                        currentLockDuration) / lockPeriod);\n                lockedSharesToReward = numberOfSharesAdjusted - toWithdraw;\n                numberOfSharesAdjusted = toWithdraw;\n            }\n        }\n        return (numberOfSharesAdjusted, lockedSharesToReward);\n    }\n\n    /// @notice Return amount ready to claim, calculated with actual boost.\n    ///         Accurate value returns only after updateRewards call.\n    function earnedWithBoost(\n        uint256 reward,\n        uint256 boostStart,\n        address controller,\n        bool protectionMode\n    ) public view returns (uint256) {\n        // if we don't have a record we assume that it was deposited before boost logic and use 100% boost\n        if (boostStart != 0 && boostStart < block.timestamp) {\n            uint256 currentBoostDuration = block.timestamp - boostStart;\n            // not 100% boost\n            IVaultController _vaultController = IVaultController(\n                IController(controller).vaultController()\n            );\n            uint256 boostDuration = _vaultController.rewardBoostDuration();\n            uint256 rewardRatioWithoutBoost = _vaultController\n                .rewardRatioWithoutBoost();\n            if (protectionMode) {\n                rewardRatioWithoutBoost = 0;\n            }\n            if (currentBoostDuration < boostDuration) {\n                uint256 rewardWithoutBoost = (reward *\n                    rewardRatioWithoutBoost) / 100;\n                // calculate boosted part of rewards\n                reward =\n                    rewardWithoutBoost +\n                    (((reward - rewardWithoutBoost) * currentBoostDuration) /\n                        boostDuration);\n            }\n        }\n        return reward;\n    }\n\n    /// @notice Transfer earned rewards to caller\n    function processPayReward(\n        address rt,\n        uint256 reward,\n        mapping(address => uint256) storage userBoostTs,\n        address controller,\n        bool protectionMode,\n        mapping(address => mapping(address => uint256)) storage rewardsForToken\n    ) public returns (uint256 renotifiedAmount, uint256 paidReward) {\n        paidReward = reward;\n        if (\n            paidReward > 0 && IERC20(rt).balanceOf(address(this)) >= paidReward\n        ) {\n            // calculate boosted amount\n            uint256 boostStart = userBoostTs[msg.sender];\n            // refresh boost\n            userBoostTs[msg.sender] = block.timestamp;\n            // if we don't have a record we assume that it was deposited before boost logic and use 100% boost\n            // allow claim without penalty to some addresses, TetuSwap pairs as example\n            if (\n                boostStart != 0 &&\n                boostStart < block.timestamp &&\n                !IController(controller).isPoorRewardConsumer(msg.sender)\n            ) {\n                uint256 currentBoostDuration = block.timestamp - boostStart;\n                IVaultController _vaultController = IVaultController(\n                    IController(controller).vaultController()\n                );\n                // not 100% boost\n                uint256 boostDuration = _vaultController.rewardBoostDuration();\n                uint256 rewardRatioWithoutBoost = _vaultController\n                    .rewardRatioWithoutBoost();\n                if (protectionMode) {\n                    rewardRatioWithoutBoost = 0;\n                }\n                if (currentBoostDuration < boostDuration) {\n                    uint256 rewardWithoutBoost = (paidReward *\n                        rewardRatioWithoutBoost) / 100;\n                    // calculate boosted part of rewards\n                    uint256 toClaim = rewardWithoutBoost +\n                        (((paidReward - rewardWithoutBoost) *\n                            currentBoostDuration) / boostDuration);\n                    renotifiedAmount = paidReward - toClaim;\n                    paidReward = toClaim;\n                    // notify reward should be called in vault\n                }\n            }\n\n            rewardsForToken[rt][msg.sender] = 0;\n            IERC20(rt).safeTransfer(msg.sender, paidReward);\n            // only statistic, should not affect reward claim process\n            try\n                IBookkeeper(IController(controller).bookkeeper())\n                    .registerUserEarned(\n                        msg.sender,\n                        address(this),\n                        rt,\n                        paidReward\n                    )\n            {} catch {}\n        }\n        return (renotifiedAmount, paidReward);\n    }\n}\n",
  "sourcePath": "/Users/cipher/Documents/work/test_tetu/contracts/VaultLibrary.sol",
  "compiler": {
    "name": "solc",
    "version": "0.8.13+commit.abaa5c0e.Emscripten.clang"
  },
  "schemaVersion": "3.4.4",
  "updatedAt": "2022-06-17T11:48:13.095Z",
  "networkType": "ethereum",
  "devdoc": {
    "author": "belbix",
    "kind": "dev",
    "methods": {
      "calculateLockedAmount(uint256,mapping(address => uint256) storage,uint256,uint256,uint256)": {
        "details": "Locking logic will add a part of locked shares as rewards for this vault      Calculate locked amount for using in the main logic"
      },
      "changeStrategy(address,address,address,address)": {
        "details": "Do necessary checks and prepare a strategy for installing"
      },
      "processWithdrawFromStrategy(uint256,address,uint256,uint256,address)": {
        "details": "It is a part of withdrawing process.      Do necessary calculation for withdrawing from strategy and move funds to vault"
      }
    },
    "title": "Library for SmartVault",
    "version": 1
  },
  "userdoc": {
    "kind": "user",
    "methods": {
      "availableToInvestOut(address,uint256,uint256)": {
        "notice": "Returns amount of the underlying asset ready to invest to the strategy"
      },
      "earnedWithBoost(uint256,uint256,address,bool)": {
        "notice": "Return amount ready to claim, calculated with actual boost.         Accurate value returns only after updateRewards call."
      },
      "processPayReward(address,uint256,mapping(address => uint256) storage,address,bool,mapping(address => mapping(address => uint256)) storage)": {
        "notice": "Transfer earned rewards to caller"
      }
    },
    "version": 1
  }
}